{"contracts/PanicVault.sol":{"PanicVault":{"abi":[{"inputs":[{"internalType":"address","name":"panicToken_","type":"address"},{"internalType":"uint256","name":"relayCost_","type":"uint256"}],"stateMutability":"nonpayable","type":"constructor"},{"inputs":[],"name":"DeadlineExpired","type":"error"},{"inputs":[],"name":"ECDSAInvalidSignature","type":"error"},{"inputs":[{"internalType":"uint256","name":"length","type":"uint256"}],"name":"ECDSAInvalidSignatureLength","type":"error"},{"inputs":[{"internalType":"bytes32","name":"s","type":"bytes32"}],"name":"ECDSAInvalidSignatureS","type":"error"},{"inputs":[],"name":"InvalidInput","type":"error"},{"inputs":[],"name":"InvalidShortString","type":"error"},{"inputs":[],"name":"InvalidSignature","type":"error"},{"inputs":[],"name":"SafeAddressMismatch","type":"error"},{"inputs":[],"name":"SafeAddressRequired","type":"error"},{"inputs":[{"internalType":"address","name":"token","type":"address"}],"name":"SafeERC20FailedOperation","type":"error"},{"inputs":[{"internalType":"string","name":"str","type":"string"}],"name":"StringTooLong","type":"error"},{"anonymous":false,"inputs":[],"name":"EIP712DomainChanged","type":"event"},{"anonymous":false,"inputs":[{"indexed":true,"internalType":"address","name":"user","type":"address"},{"indexed":false,"internalType":"address","name":"safeAddress","type":"address"},{"indexed":false,"internalType":"bool","name":"relayMode","type":"bool"}],"name":"PanicExecuted","type":"event"},{"anonymous":false,"inputs":[{"indexed":true,"internalType":"address","name":"user","type":"address"},{"indexed":false,"internalType":"address","name":"safeAddress","type":"address"}],"name":"SafeAddressSet","type":"event"},{"inputs":[],"name":"eip712Domain","outputs":[{"internalType":"bytes1","name":"fields","type":"bytes1"},{"internalType":"string","name":"name","type":"string"},{"internalType":"string","name":"version","type":"string"},{"internalType":"uint256","name":"chainId","type":"uint256"},{"internalType":"address","name":"verifyingContract","type":"address"},{"internalType":"bytes32","name":"salt","type":"bytes32"},{"internalType":"uint256[]","name":"extensions","type":"uint256[]"}],"stateMutability":"view","type":"function"},{"inputs":[{"internalType":"address","name":"","type":"address"}],"name":"nonces","outputs":[{"internalType":"uint256","name":"","type":"uint256"}],"stateMutability":"view","type":"function"},{"inputs":[{"internalType":"address[]","name":"tokens","type":"address[]"},{"internalType":"address[]","name":"spenders","type":"address[]"}],"name":"panicDirect","outputs":[],"stateMutability":"nonpayable","type":"function"},{"inputs":[{"components":[{"internalType":"address","name":"user","type":"address"},{"internalType":"address[]","name":"tokens","type":"address[]"},{"internalType":"address[]","name":"spenders","type":"address[]"},{"internalType":"address","name":"safeAddress","type":"address"},{"internalType":"uint256","name":"deadline","type":"uint256"},{"internalType":"uint256","name":"nonce","type":"uint256"}],"internalType":"struct PanicVault.RelayPanic","name":"request","type":"tuple"},{"internalType":"bytes","name":"signature","type":"bytes"}],"name":"panicRelay","outputs":[],"stateMutability":"nonpayable","type":"function"},{"inputs":[],"name":"panicToken","outputs":[{"internalType":"contract PANICToken","name":"","type":"address"}],"stateMutability":"view","type":"function"},{"inputs":[],"name":"relayCost","outputs":[{"internalType":"uint256","name":"","type":"uint256"}],"stateMutability":"view","type":"function"},{"inputs":[{"internalType":"address","name":"","type":"address"}],"name":"safeAddresses","outputs":[{"internalType":"address","name":"","type":"address"}],"stateMutability":"view","type":"function"},{"inputs":[{"internalType":"address","name":"safeAddress","type":"address"}],"name":"setSafeAddress","outputs":[],"stateMutability":"nonpayable","type":"function"}],"evm":{"bytecode":{"linkReferences":{},"object":"6101806040523480156200001257600080fd5b50604051620015a5380380620015a58339810160408190526200003591620001c2565b604080518082018252600a81526914185b9a58d5985d5b1d60b21b602080830191909152825180840190935260018352603160f81b90830152906200007c8260006200013d565b610120526200008d8160016200013d565b61014052815160208084019190912060e052815190820120610100524660a0526200011b60e05161010051604080517f8b73c3c69bb8fe3d512ecc4cf759cc79239f7b179b0ffacaa9a75d522b39400f60208201529081019290925260608201524660808201523060a082015260009060c00160405160208183030381529060405280519060200120905090565b60805250503060c0526001600160a01b039190911661016052600255620003e4565b60006020835110156200015d57620001558362000176565b905062000170565b816200016a8482620002a3565b5060ff90505b92915050565b600080829050601f81511115620001ad578260405163305a27a960e01b8152600401620001a491906200036f565b60405180910390fd5b8051620001ba82620003bf565b179392505050565b60008060408385031215620001d657600080fd5b82516001600160a01b0381168114620001ee57600080fd5b6020939093015192949293505050565b634e487b7160e01b600052604160045260246000fd5b600181811c908216806200022957607f821691505b6020821081036200024a57634e487b7160e01b600052602260045260246000fd5b50919050565b601f8211156200029e57600081815260208120601f850160051c81016020861015620002795750805b601f850160051c820191505b818110156200029a5782815560010162000285565b5050505b505050565b81516001600160401b03811115620002bf57620002bf620001fe565b620002d781620002d0845462000214565b8462000250565b602080601f8311600181146200030f5760008415620002f65750858301515b600019600386901b1c1916600185901b1785556200029a565b600085815260208120601f198616915b8281101562000340578886015182559484019460019091019084016200031f565b50858210156200035f5787850151600019600388901b60f8161c191681555b5050505050600190811b01905550565b600060208083528351808285015260005b818110156200039e5785810183015185820160400152820162000380565b506000604082860101526040601f19601f8301168501019250505092915050565b805160208083015191908110156200024a5760001960209190910360031b1b16919050565b60805160a05160c05160e05161010051610120516101405161016051611155620004506000396000818160c3015261055e0152600061067a0152600061064801526000610a02015260006109da015260006109350152600061095f0152600061098901526111556000f3fe608060405234801561001057600080fd5b50600436106100885760003560e01c8063830b76ab1161005b578063830b76ab1461011d57806384b0196e14610146578063f0f14d2714610161578063f14fb0b51461017457600080fd5b80630c95878d1461008d5780631ec49909146100a95780634375f683146100be5780637ecebe00146100fd575b600080fd5b61009660025481565b6040519081526020015b60405180910390f35b6100bc6100b7366004610d7f565b610187565b005b6100e57f000000000000000000000000000000000000000000000000000000000000000081565b6040516001600160a01b0390911681526020016100a0565b61009661010b366004610d7f565b60036020526000908152604090205481565b6100e561012b366004610d7f565b6004602052600090815260409020546001600160a01b031681565b61014e610210565b6040516100a09796959493929190610de7565b6100bc61016f366004610e7d565b610256565b6100bc610182366004610f68565b61062c565b6001600160a01b0381166101ae576040516302bc85f760e51b815260040160405180910390fd5b3360008181526004602090815260409182902080546001600160a01b0319166001600160a01b03861690811790915591519182527fb0437bab3af73a1f47e797ecb5b13ec4cfd9ade4afd5042340786d911ce6eb79910160405180910390a250565b600060608060008060006060610224610641565b61022c610673565b60408051600080825260208201909252600f60f81b9b939a50919850469750309650945092509050565b826080013542111561027b57604051631ab7da6b60e01b815260040160405180910390fd5b600061028a6020850185610d7f565b6001600160a01b0316036102b15760405163b4fa3fb360e01b815260040160405180910390fd5b600360006102c26020860186610d7f565b6001600160a01b03166001600160a01b03168152602001908152602001600020548360a001351461030657604051638baa579f60e01b815260040160405180910390fd5b6103166080840160608501610d7f565b6001600160a01b0316600460006103306020870187610d7f565b6001600160a01b039081168252602082019290925260400160002054161461036b57604051631a94281b60e21b815260040160405180910390fd5b60007f1d870bfe09c2ad0f0c6c14f985c51f7cc871f00d94400dab32e9a470f8345e6f61039b6020860186610d7f565b6103a86020870187610fd4565b6040516020016103b992919061101e565b604051602081830303815290604052805190602001208680604001906103df9190610fd4565b6040516020016103f092919061101e565b60408051601f1981840301815291905280516020909101206104186080890160608a01610d7f565b6040805160208101969096526001600160a01b03948516908601526060850192909252608084810191909152911660a0838101919091529086013560c083015285013560e0820152610100016040516020818303038152906040528051906020012090506000610487826106a0565b905060006104cd85858080601f01602080910402602001604051908101604052809392919081815260200183838082843760009201919091525086939250506106d39050565b90506104dc6020870187610d7f565b6001600160a01b0316816001600160a01b03161461050d57604051638baa579f60e01b815260040160405180910390fd5b60016003600061052060208a018a610d7f565b6001600160a01b03166001600160a01b03168152602001908152602001600020600082825461054f9190611074565b90915550506001600160a01b037f0000000000000000000000000000000000000000000000000000000000000000166379cc67906105906020890189610d7f565b6002546040516001600160e01b031960e085901b1681526001600160a01b0390921660048301526024820152604401600060405180830381600087803b1580156105d957600080fd5b505af11580156105ed573d6000803e3d6000fd5b5061062492506106039150506020880188610d7f565b6106106020890189610fd4565b61061d60408b018b610fd4565b60016106fd565b505050505050565b61063b338585858560006106fd565b50505050565b606061066e7f0000000000000000000000000000000000000000000000000000000000000000600061087d565b905090565b606061066e7f0000000000000000000000000000000000000000000000000000000000000000600161087d565b60006106cd6106ad610928565b8360405161190160f01b8152600281019290925260228201526042902090565b92915050565b6000806000806106e38686610a53565b9250925092506106f38282610aa0565b5090949350505050565b6001600160a01b038087166000908152600460205260409020541680610736576040516302bc85f760e51b815260040160405180910390fd5b8483146107565760405163b4fa3fb360e01b815260040160405180910390fd5b60005b8581101561082c57600087878381811061077557610775611087565b905060200201602081019061078a9190610d7f565b6040516370a0823160e01b81526001600160a01b038b811660048301529192506000918316906370a0823190602401602060405180830381865afa1580156107d6573d6000803e3d6000fd5b505050506040513d601f19601f820116820180604052508101906107fa919061109d565b90508015610817576108176001600160a01b0383168b8684610b62565b50508080610824906110b6565b915050610759565b50604080516001600160a01b03838116825284151560208301528916917f853a67783e8712cb487083d52e172e0bb70e962d475b3725cd0d16c624c572e7910160405180910390a250505050505050565b606060ff83146108975761089083610bbc565b90506106cd565b8180546108a3906110cf565b80601f01602080910402602001604051908101604052809291908181526020018280546108cf906110cf565b801561091c5780601f106108f15761010080835404028352916020019161091c565b820191906000526020600020905b8154815290600101906020018083116108ff57829003601f168201915b505050505090506106cd565b6000306001600160a01b037f00000000000000000000000000000000000000000000000000000000000000001614801561098157507f000000000000000000000000000000000000000000000000000000000000000046145b156109ab57507f000000000000000000000000000000000000000000000000000000000000000090565b61066e604080517f8b73c3c69bb8fe3d512ecc4cf759cc79239f7b179b0ffacaa9a75d522b39400f60208201527f0000000000000000000000000000000000000000000000000000000000000000918101919091527f000000000000000000000000000000000000000000000000000000000000000060608201524660808201523060a082015260009060c00160405160208183030381529060405280519060200120905090565b60008060008351604103610a8d5760208401516040850151606086015160001a610a7f88828585610bfb565b955095509550505050610a99565b50508151600091506002905b9250925092565b6000826003811115610ab457610ab4611109565b03610abd575050565b6001826003811115610ad157610ad1611109565b03610aef5760405163f645eedf60e01b815260040160405180910390fd5b6002826003811115610b0357610b03611109565b03610b295760405163fce698f760e01b8152600481018290526024015b60405180910390fd5b6003826003811115610b3d57610b3d611109565b03610b5e576040516335e2f38360e21b815260048101829052602401610b20565b5050565b604080516001600160a01b0385811660248301528416604482015260648082018490528251808303909101815260849091019091526020810180516001600160e01b03166323b872dd60e01b17905261063b908590610cca565b60606000610bc983610d3b565b604080516020808252818301909252919250600091906020820181803683375050509182525060208101929092525090565b600080807f7fffffffffffffffffffffffffffffff5d576e7357a4501ddfe92f46681b20a0841115610c365750600091506003905082610cc0565b604080516000808252602082018084528a905260ff891692820192909252606081018790526080810186905260019060a0016020604051602081039080840390855afa158015610c8a573d6000803e3d6000fd5b5050604051601f1901519150506001600160a01b038116610cb657506000925060019150829050610cc0565b9250600091508190505b9450945094915050565b600080602060008451602086016000885af180610ced576040513d6000823e3d81fd5b50506000513d91508115610d05578060011415610d12565b6001600160a01b0384163b155b1561063b57604051635274afe760e01b81526001600160a01b0385166004820152602401610b20565b600060ff8216601f8111156106cd57604051632cd44ac360e21b815260040160405180910390fd5b80356001600160a01b0381168114610d7a57600080fd5b919050565b600060208284031215610d9157600080fd5b610d9a82610d63565b9392505050565b6000815180845260005b81811015610dc757602081850181015186830182015201610dab565b506000602082860101526020601f19601f83011685010191505092915050565b60ff60f81b881681526000602060e081840152610e0760e084018a610da1565b8381036040850152610e19818a610da1565b606085018990526001600160a01b038816608086015260a0850187905284810360c0860152855180825283870192509083019060005b81811015610e6b57835183529284019291840191600101610e4f565b50909c9b505050505050505050505050565b600080600060408486031215610e9257600080fd5b833567ffffffffffffffff80821115610eaa57600080fd5b9085019060c08288031215610ebe57600080fd5b90935060208501359080821115610ed457600080fd5b818601915086601f830112610ee857600080fd5b813581811115610ef757600080fd5b876020828501011115610f0957600080fd5b6020830194508093505050509250925092565b60008083601f840112610f2e57600080fd5b50813567ffffffffffffffff811115610f4657600080fd5b6020830191508360208260051b8501011115610f6157600080fd5b9250929050565b60008060008060408587031215610f7e57600080fd5b843567ffffffffffffffff80821115610f9657600080fd5b610fa288838901610f1c565b90965094506020870135915080821115610fbb57600080fd5b50610fc887828801610f1c565b95989497509550505050565b6000808335601e19843603018112610feb57600080fd5b83018035915067ffffffffffffffff82111561100657600080fd5b6020019150600581901b3603821315610f6157600080fd5b60008184825b85811015611053576001600160a01b0361103d83610d63565b1683526020928301929190910190600101611024565b509095945050505050565b634e487b7160e01b600052601160045260246000fd5b808201808211156106cd576106cd61105e565b634e487b7160e01b600052603260045260246000fd5b6000602082840312156110af57600080fd5b5051919050565b6000600182016110c8576110c861105e565b5060010190565b600181811c908216806110e357607f821691505b60208210810361110357634e487b7160e01b600052602260045260246000fd5b50919050565b634e487b7160e01b600052602160045260246000fdfea26469706673582212202120fdb693b3d8e0990c0179e02c1f65f85b0cef70c9fb1df6a945e3be50a55264736f6c63430008140033","opcodes":"PUSH2 0x180 PUSH1 0x40 MSTORE CALLVALUE DUP1 ISZERO PUSH3 0x12 JUMPI PUSH1 0x0 DUP1 REVERT JUMPDEST POP PUSH1 0x40 MLOAD PUSH3 0x15A5 CODESIZE SUB DUP1 PUSH3 0x15A5 DUP4 CODECOPY DUP2 ADD PUSH1 0x40 DUP2 SWAP1 MSTORE PUSH3 0x35 SWAP2 PUSH3 0x1C2 JUMP JUMPDEST PUSH1 0x40 DUP1 MLOAD DUP1 DUP3 ADD DUP3 MSTORE PUSH1 0xA DUP2 MSTORE PUSH10 0x14185B9A58D5985D5B1D PUSH1 0xB2 SHL PUSH1 0x20 DUP1 DUP4 ADD SWAP2 SWAP1 SWAP2 MSTORE DUP3 MLOAD DUP1 DUP5 ADD SWAP1 SWAP4 MSTORE PUSH1 0x1 DUP4 MSTORE PUSH1 0x31 PUSH1 0xF8 SHL SWAP1 DUP4 ADD MSTORE SWAP1 PUSH3 0x7C DUP3 PUSH1 0x0 PUSH3 0x13D JUMP JUMPDEST PUSH2 0x120 MSTORE PUSH3 0x8D DUP2 PUSH1 0x1 PUSH3 0x13D JUMP JUMPDEST PUSH2 0x140 MSTORE DUP2 MLOAD PUSH1 0x20 DUP1 DUP5 ADD SWAP2 SWAP1 SWAP2 KECCAK256 PUSH1 0xE0 MSTORE DUP2 MLOAD SWAP1 DUP3 ADD KECCAK256 PUSH2 0x100 MSTORE CHAINID PUSH1 0xA0 MSTORE PUSH3 0x11B PUSH1 0xE0 MLOAD PUSH2 0x100 MLOAD PUSH1 0x40 DUP1 MLOAD PUSH32 0x8B73C3C69BB8FE3D512ECC4CF759CC79239F7B179B0FFACAA9A75D522B39400F PUSH1 0x20 DUP3 ADD MSTORE SWAP1 DUP2 ADD SWAP3 SWAP1 SWAP3 MSTORE PUSH1 0x60 DUP3 ADD MSTORE CHAINID PUSH1 0x80 DUP3 ADD MSTORE ADDRESS PUSH1 0xA0 DUP3 ADD MSTORE PUSH1 0x0 SWAP1 PUSH1 0xC0 ADD PUSH1 0x40 MLOAD PUSH1 0x20 DUP2 DUP4 SUB SUB DUP2 MSTORE SWAP1 PUSH1 0x40 MSTORE DUP1 MLOAD SWAP1 PUSH1 0x20 ADD KECCAK256 SWAP1 POP SWAP1 JUMP JUMPDEST PUSH1 0x80 MSTORE POP POP ADDRESS PUSH1 0xC0 MSTORE PUSH1 0x1 PUSH1 0x1 PUSH1 0xA0 SHL SUB SWAP2 SWAP1 SWAP2 AND PUSH2 0x160 MSTORE PUSH1 0x2 SSTORE PUSH3 0x3E4 JUMP JUMPDEST PUSH1 0x0 PUSH1 0x20 DUP4 MLOAD LT ISZERO PUSH3 0x15D JUMPI PUSH3 0x155 DUP4 PUSH3 0x176 JUMP JUMPDEST SWAP1 POP PUSH3 0x170 JUMP JUMPDEST DUP2 PUSH3 0x16A DUP5 DUP3 PUSH3 0x2A3 JUMP JUMPDEST POP PUSH1 0xFF SWAP1 POP JUMPDEST SWAP3 SWAP2 POP POP JUMP JUMPDEST PUSH1 0x0 DUP1 DUP3 SWAP1 POP PUSH1 0x1F DUP2 MLOAD GT ISZERO PUSH3 0x1AD JUMPI DUP3 PUSH1 0x40 MLOAD PUSH4 0x305A27A9 PUSH1 0xE0 SHL DUP2 MSTORE PUSH1 0x4 ADD PUSH3 0x1A4 SWAP2 SWAP1 PUSH3 0x36F JUMP JUMPDEST PUSH1 0x40 MLOAD DUP1 SWAP2 SUB SWAP1 REVERT JUMPDEST DUP1 MLOAD PUSH3 0x1BA DUP3 PUSH3 0x3BF JUMP JUMPDEST OR SWAP4 SWAP3 POP POP POP JUMP JUMPDEST PUSH1 0x0 DUP1 PUSH1 0x40 DUP4 DUP6 SUB SLT ISZERO PUSH3 0x1D6 JUMPI PUSH1 0x0 DUP1 REVERT JUMPDEST DUP3 MLOAD PUSH1 0x1 PUSH1 0x1 PUSH1 0xA0 SHL SUB DUP2 AND DUP2 EQ PUSH3 0x1EE JUMPI PUSH1 0x0 DUP1 REVERT JUMPDEST PUSH1 0x20 SWAP4 SWAP1 SWAP4 ADD MLOAD SWAP3 SWAP5 SWAP3 SWAP4 POP POP POP JUMP JUMPDEST PUSH4 0x4E487B71 PUSH1 0xE0 SHL PUSH1 0x0 MSTORE PUSH1 0x41 PUSH1 0x4 MSTORE PUSH1 0x24 PUSH1 0x0 REVERT JUMPDEST PUSH1 0x1 DUP2 DUP2 SHR SWAP1 DUP3 AND DUP1 PUSH3 0x229 JUMPI PUSH1 0x7F DUP3 AND SWAP2 POP JUMPDEST PUSH1 0x20 DUP3 LT DUP2 SUB PUSH3 0x24A JUMPI PUSH4 0x4E487B71 PUSH1 0xE0 SHL PUSH1 0x0 MSTORE PUSH1 0x22 PUSH1 0x4 MSTORE PUSH1 0x24 PUSH1 0x0 REVERT JUMPDEST POP SWAP2 SWAP1 POP JUMP JUMPDEST PUSH1 0x1F DUP3 GT ISZERO PUSH3 0x29E JUMPI PUSH1 0x0 DUP2 DUP2 MSTORE PUSH1 0x20 DUP2 KECCAK256 PUSH1 0x1F DUP6 ADD PUSH1 0x5 SHR DUP2 ADD PUSH1 0x20 DUP7 LT ISZERO PUSH3 0x279 JUMPI POP DUP1 JUMPDEST PUSH1 0x1F DUP6 ADD PUSH1 0x5 SHR DUP3 ADD SWAP2 POP JUMPDEST DUP2 DUP2 LT ISZERO PUSH3 0x29A JUMPI DUP3 DUP2 SSTORE PUSH1 0x1 ADD PUSH3 0x285 JUMP JUMPDEST POP POP POP JUMPDEST POP POP POP JUMP JUMPDEST DUP2 MLOAD PUSH1 0x1 PUSH1 0x1 PUSH1 0x40 SHL SUB DUP2 GT ISZERO PUSH3 0x2BF JUMPI PUSH3 0x2BF PUSH3 0x1FE JUMP JUMPDEST PUSH3 0x2D7 DUP2 PUSH3 0x2D0 DUP5 SLOAD PUSH3 0x214 JUMP JUMPDEST DUP5 PUSH3 0x250 JUMP JUMPDEST PUSH1 0x20 DUP1 PUSH1 0x1F DUP4 GT PUSH1 0x1 DUP2 EQ PUSH3 0x30F JUMPI PUSH1 0x0 DUP5 ISZERO PUSH3 0x2F6 JUMPI POP DUP6 DUP4 ADD MLOAD JUMPDEST PUSH1 0x0 NOT PUSH1 0x3 DUP7 SWAP1 SHL SHR NOT AND PUSH1 0x1 DUP6 SWAP1 SHL OR DUP6 SSTORE PUSH3 0x29A JUMP JUMPDEST PUSH1 0x0 DUP6 DUP2 MSTORE PUSH1 0x20 DUP2 KECCAK256 PUSH1 0x1F NOT DUP7 AND SWAP2 JUMPDEST DUP3 DUP2 LT ISZERO PUSH3 0x340 JUMPI DUP9 DUP7 ADD MLOAD DUP3 SSTORE SWAP5 DUP5 ADD SWAP5 PUSH1 0x1 SWAP1 SWAP2 ADD SWAP1 DUP5 ADD PUSH3 0x31F JUMP JUMPDEST POP DUP6 DUP3 LT ISZERO PUSH3 0x35F JUMPI DUP8 DUP6 ADD MLOAD PUSH1 0x0 NOT PUSH1 0x3 DUP9 SWAP1 SHL PUSH1 0xF8 AND SHR NOT AND DUP2 SSTORE JUMPDEST POP POP POP POP POP PUSH1 0x1 SWAP1 DUP2 SHL ADD SWAP1 SSTORE POP JUMP JUMPDEST PUSH1 0x0 PUSH1 0x20 DUP1 DUP4 MSTORE DUP4 MLOAD DUP1 DUP3 DUP6 ADD MSTORE PUSH1 0x0 JUMPDEST DUP2 DUP2 LT ISZERO PUSH3 0x39E JUMPI DUP6 DUP2 ADD DUP4 ADD MLOAD DUP6 DUP3 ADD PUSH1 0x40 ADD MSTORE DUP3 ADD PUSH3 0x380 JUMP JUMPDEST POP PUSH1 0x0 PUSH1 0x40 DUP3 DUP7 ADD ADD MSTORE PUSH1 0x40 PUSH1 0x1F NOT PUSH1 0x1F DUP4 ADD AND DUP6 ADD ADD SWAP3 POP POP POP SWAP3 SWAP2 POP POP JUMP JUMPDEST DUP1 MLOAD PUSH1 0x20 DUP1 DUP4 ADD MLOAD SWAP2 SWAP1 DUP2 LT ISZERO PUSH3 0x24A JUMPI PUSH1 0x0 NOT PUSH1 0x20 SWAP2 SWAP1 SWAP2 SUB PUSH1 0x3 SHL SHL AND SWAP2 SWAP1 POP JUMP JUMPDEST PUSH1 0x80 MLOAD PUSH1 0xA0 MLOAD PUSH1 0xC0 MLOAD PUSH1 0xE0 MLOAD PUSH2 0x100 MLOAD PUSH2 0x120 MLOAD PUSH2 0x140 MLOAD PUSH2 0x160 MLOAD PUSH2 0x1155 PUSH3 0x450 PUSH1 0x0 CODECOPY PUSH1 0x0 DUP2 DUP2 PUSH1 0xC3 ADD MSTORE PUSH2 0x55E ADD MSTORE PUSH1 0x0 PUSH2 0x67A ADD MSTORE PUSH1 0x0 PUSH2 0x648 ADD MSTORE PUSH1 0x0 PUSH2 0xA02 ADD MSTORE PUSH1 0x0 PUSH2 0x9DA ADD MSTORE PUSH1 0x0 PUSH2 0x935 ADD MSTORE PUSH1 0x0 PUSH2 0x95F ADD MSTORE PUSH1 0x0 PUSH2 0x989 ADD MSTORE PUSH2 0x1155 PUSH1 0x0 RETURN INVALID PUSH1 0x80 PUSH1 0x40 MSTORE CALLVALUE DUP1 ISZERO PUSH2 0x10 JUMPI PUSH1 0x0 DUP1 REVERT JUMPDEST POP PUSH1 0x4 CALLDATASIZE LT PUSH2 0x88 JUMPI PUSH1 0x0 CALLDATALOAD PUSH1 0xE0 SHR DUP1 PUSH4 0x830B76AB GT PUSH2 0x5B JUMPI DUP1 PUSH4 0x830B76AB EQ PUSH2 0x11D JUMPI DUP1 PUSH4 0x84B0196E EQ PUSH2 0x146 JUMPI DUP1 PUSH4 0xF0F14D27 EQ PUSH2 0x161 JUMPI DUP1 PUSH4 0xF14FB0B5 EQ PUSH2 0x174 JUMPI PUSH1 0x0 DUP1 REVERT JUMPDEST DUP1 PUSH4 0xC95878D EQ PUSH2 0x8D JUMPI DUP1 PUSH4 0x1EC49909 EQ PUSH2 0xA9 JUMPI DUP1 PUSH4 0x4375F683 EQ PUSH2 0xBE JUMPI DUP1 PUSH4 0x7ECEBE00 EQ PUSH2 0xFD JUMPI JUMPDEST PUSH1 0x0 DUP1 REVERT JUMPDEST PUSH2 0x96 PUSH1 0x2 SLOAD DUP2 JUMP JUMPDEST PUSH1 0x40 MLOAD SWAP1 DUP2 MSTORE PUSH1 0x20 ADD JUMPDEST PUSH1 0x40 MLOAD DUP1 SWAP2 SUB SWAP1 RETURN JUMPDEST PUSH2 0xBC PUSH2 0xB7 CALLDATASIZE PUSH1 0x4 PUSH2 0xD7F JUMP JUMPDEST PUSH2 0x187 JUMP JUMPDEST STOP JUMPDEST PUSH2 0xE5 PUSH32 0x0 DUP2 JUMP JUMPDEST PUSH1 0x40 MLOAD PUSH1 0x1 PUSH1 0x1 PUSH1 0xA0 SHL SUB SWAP1 SWAP2 AND DUP2 MSTORE PUSH1 0x20 ADD PUSH2 0xA0 JUMP JUMPDEST PUSH2 0x96 PUSH2 0x10B CALLDATASIZE PUSH1 0x4 PUSH2 0xD7F JUMP JUMPDEST PUSH1 0x3 PUSH1 0x20 MSTORE PUSH1 0x0 SWAP1 DUP2 MSTORE PUSH1 0x40 SWAP1 KECCAK256 SLOAD DUP2 JUMP JUMPDEST PUSH2 0xE5 PUSH2 0x12B CALLDATASIZE PUSH1 0x4 PUSH2 0xD7F JUMP JUMPDEST PUSH1 0x4 PUSH1 0x20 MSTORE PUSH1 0x0 SWAP1 DUP2 MSTORE PUSH1 0x40 SWAP1 KECCAK256 SLOAD PUSH1 0x1 PUSH1 0x1 PUSH1 0xA0 SHL SUB AND DUP2 JUMP JUMPDEST PUSH2 0x14E PUSH2 0x210 JUMP JUMPDEST PUSH1 0x40 MLOAD PUSH2 0xA0 SWAP8 SWAP7 SWAP6 SWAP5 SWAP4 SWAP3 SWAP2 SWAP1 PUSH2 0xDE7 JUMP JUMPDEST PUSH2 0xBC PUSH2 0x16F CALLDATASIZE PUSH1 0x4 PUSH2 0xE7D JUMP JUMPDEST PUSH2 0x256 JUMP JUMPDEST PUSH2 0xBC PUSH2 0x182 CALLDATASIZE PUSH1 0x4 PUSH2 0xF68 JUMP JUMPDEST PUSH2 0x62C JUMP JUMPDEST PUSH1 0x1 PUSH1 0x1 PUSH1 0xA0 SHL SUB DUP2 AND PUSH2 0x1AE JUMPI PUSH1 0x40 MLOAD PUSH4 0x2BC85F7 PUSH1 0xE5 SHL DUP2 MSTORE PUSH1 0x4 ADD PUSH1 0x40 MLOAD DUP1 SWAP2 SUB SWAP1 REVERT JUMPDEST CALLER PUSH1 0x0 DUP2 DUP2 MSTORE PUSH1 0x4 PUSH1 0x20 SWAP1 DUP2 MSTORE PUSH1 0x40 SWAP2 DUP3 SWAP1 KECCAK256 DUP1 SLOAD PUSH1 0x1 PUSH1 0x1 PUSH1 0xA0 SHL SUB NOT AND PUSH1 0x1 PUSH1 0x1 PUSH1 0xA0 SHL SUB DUP7 AND SWAP1 DUP2 OR SWAP1 SWAP2 SSTORE SWAP2 MLOAD SWAP2 DUP3 MSTORE PUSH32 0xB0437BAB3AF73A1F47E797ECB5B13EC4CFD9ADE4AFD5042340786D911CE6EB79 SWAP2 ADD PUSH1 0x40 MLOAD DUP1 SWAP2 SUB SWAP1 LOG2 POP JUMP JUMPDEST PUSH1 0x0 PUSH1 0x60 DUP1 PUSH1 0x0 DUP1 PUSH1 0x0 PUSH1 0x60 PUSH2 0x224 PUSH2 0x641 JUMP JUMPDEST PUSH2 0x22C PUSH2 0x673 JUMP JUMPDEST PUSH1 0x40 DUP1 MLOAD PUSH1 0x0 DUP1 DUP3 MSTORE PUSH1 0x20 DUP3 ADD SWAP1 SWAP3 MSTORE PUSH1 0xF PUSH1 0xF8 SHL SWAP12 SWAP4 SWAP11 POP SWAP2 SWAP9 POP CHAINID SWAP8 POP ADDRESS SWAP7 POP SWAP5 POP SWAP3 POP SWAP1 POP JUMP JUMPDEST DUP3 PUSH1 0x80 ADD CALLDATALOAD TIMESTAMP GT ISZERO PUSH2 0x27B JUMPI PUSH1 0x40 MLOAD PUSH4 0x1AB7DA6B PUSH1 0xE0 SHL DUP2 MSTORE PUSH1 0x4 ADD PUSH1 0x40 MLOAD DUP1 SWAP2 SUB SWAP1 REVERT JUMPDEST PUSH1 0x0 PUSH2 0x28A PUSH1 0x20 DUP6 ADD DUP6 PUSH2 0xD7F JUMP JUMPDEST PUSH1 0x1 PUSH1 0x1 PUSH1 0xA0 SHL SUB AND SUB PUSH2 0x2B1 JUMPI PUSH1 0x40 MLOAD PUSH4 0xB4FA3FB3 PUSH1 0xE0 SHL DUP2 MSTORE PUSH1 0x4 ADD PUSH1 0x40 MLOAD DUP1 SWAP2 SUB SWAP1 REVERT JUMPDEST PUSH1 0x3 PUSH1 0x0 PUSH2 0x2C2 PUSH1 0x20 DUP7 ADD DUP7 PUSH2 0xD7F JUMP JUMPDEST PUSH1 0x1 PUSH1 0x1 PUSH1 0xA0 SHL SUB AND PUSH1 0x1 PUSH1 0x1 PUSH1 0xA0 SHL SUB AND DUP2 MSTORE PUSH1 0x20 ADD SWAP1 DUP2 MSTORE PUSH1 0x20 ADD PUSH1 0x0 KECCAK256 SLOAD DUP4 PUSH1 0xA0 ADD CALLDATALOAD EQ PUSH2 0x306 JUMPI PUSH1 0x40 MLOAD PUSH4 0x8BAA579F PUSH1 0xE0 SHL DUP2 MSTORE PUSH1 0x4 ADD PUSH1 0x40 MLOAD DUP1 SWAP2 SUB SWAP1 REVERT JUMPDEST PUSH2 0x316 PUSH1 0x80 DUP5 ADD PUSH1 0x60 DUP6 ADD PUSH2 0xD7F JUMP JUMPDEST PUSH1 0x1 PUSH1 0x1 PUSH1 0xA0 SHL SUB AND PUSH1 0x4 PUSH1 0x0 PUSH2 0x330 PUSH1 0x20 DUP8 ADD DUP8 PUSH2 0xD7F JUMP JUMPDEST PUSH1 0x1 PUSH1 0x1 PUSH1 0xA0 SHL SUB SWAP1 DUP2 AND DUP3 MSTORE PUSH1 0x20 DUP3 ADD SWAP3 SWAP1 SWAP3 MSTORE PUSH1 0x40 ADD PUSH1 0x0 KECCAK256 SLOAD AND EQ PUSH2 0x36B JUMPI PUSH1 0x40 MLOAD PUSH4 0x1A94281B PUSH1 0xE2 SHL DUP2 MSTORE PUSH1 0x4 ADD PUSH1 0x40 MLOAD DUP1 SWAP2 SUB SWAP1 REVERT JUMPDEST PUSH1 0x0 PUSH32 0x1D870BFE09C2AD0F0C6C14F985C51F7CC871F00D94400DAB32E9A470F8345E6F PUSH2 0x39B PUSH1 0x20 DUP7 ADD DUP7 PUSH2 0xD7F JUMP JUMPDEST PUSH2 0x3A8 PUSH1 0x20 DUP8 ADD DUP8 PUSH2 0xFD4 JUMP JUMPDEST PUSH1 0x40 MLOAD PUSH1 0x20 ADD PUSH2 0x3B9 SWAP3 SWAP2 SWAP1 PUSH2 0x101E JUMP JUMPDEST PUSH1 0x40 MLOAD PUSH1 0x20 DUP2 DUP4 SUB SUB DUP2 MSTORE SWAP1 PUSH1 0x40 MSTORE DUP1 MLOAD SWAP1 PUSH1 0x20 ADD KECCAK256 DUP7 DUP1 PUSH1 0x40 ADD SWAP1 PUSH2 0x3DF SWAP2 SWAP1 PUSH2 0xFD4 JUMP JUMPDEST PUSH1 0x40 MLOAD PUSH1 0x20 ADD PUSH2 0x3F0 SWAP3 SWAP2 SWAP1 PUSH2 0x101E JUMP JUMPDEST PUSH1 0x40 DUP1 MLOAD PUSH1 0x1F NOT DUP2 DUP5 SUB ADD DUP2 MSTORE SWAP2 SWAP1 MSTORE DUP1 MLOAD PUSH1 0x20 SWAP1 SWAP2 ADD KECCAK256 PUSH2 0x418 PUSH1 0x80 DUP10 ADD PUSH1 0x60 DUP11 ADD PUSH2 0xD7F JUMP JUMPDEST PUSH1 0x40 DUP1 MLOAD PUSH1 0x20 DUP2 ADD SWAP7 SWAP1 SWAP7 MSTORE PUSH1 0x1 PUSH1 0x1 PUSH1 0xA0 SHL SUB SWAP5 DUP6 AND SWAP1 DUP7 ADD MSTORE PUSH1 0x60 DUP6 ADD SWAP3 SWAP1 SWAP3 MSTORE PUSH1 0x80 DUP5 DUP2 ADD SWAP2 SWAP1 SWAP2 MSTORE SWAP2 AND PUSH1 0xA0 DUP4 DUP2 ADD SWAP2 SWAP1 SWAP2 MSTORE SWAP1 DUP7 ADD CALLDATALOAD PUSH1 0xC0 DUP4 ADD MSTORE DUP6 ADD CALLDATALOAD PUSH1 0xE0 DUP3 ADD MSTORE PUSH2 0x100 ADD PUSH1 0x40 MLOAD PUSH1 0x20 DUP2 DUP4 SUB SUB DUP2 MSTORE SWAP1 PUSH1 0x40 MSTORE DUP1 MLOAD SWAP1 PUSH1 0x20 ADD KECCAK256 SWAP1 POP PUSH1 0x0 PUSH2 0x487 DUP3 PUSH2 0x6A0 JUMP JUMPDEST SWAP1 POP PUSH1 0x0 PUSH2 0x4CD DUP6 DUP6 DUP1 DUP1 PUSH1 0x1F ADD PUSH1 0x20 DUP1 SWAP2 DIV MUL PUSH1 0x20 ADD PUSH1 0x40 MLOAD SWAP1 DUP2 ADD PUSH1 0x40 MSTORE DUP1 SWAP4 SWAP3 SWAP2 SWAP1 DUP2 DUP2 MSTORE PUSH1 0x20 ADD DUP4 DUP4 DUP1 DUP3 DUP5 CALLDATACOPY PUSH1 0x0 SWAP3 ADD SWAP2 SWAP1 SWAP2 MSTORE POP DUP7 SWAP4 SWAP3 POP POP PUSH2 0x6D3 SWAP1 POP JUMP JUMPDEST SWAP1 POP PUSH2 0x4DC PUSH1 0x20 DUP8 ADD DUP8 PUSH2 0xD7F JUMP JUMPDEST PUSH1 0x1 PUSH1 0x1 PUSH1 0xA0 SHL SUB AND DUP2 PUSH1 0x1 PUSH1 0x1 PUSH1 0xA0 SHL SUB AND EQ PUSH2 0x50D JUMPI PUSH1 0x40 MLOAD PUSH4 0x8BAA579F PUSH1 0xE0 SHL DUP2 MSTORE PUSH1 0x4 ADD PUSH1 0x40 MLOAD DUP1 SWAP2 SUB SWAP1 REVERT JUMPDEST PUSH1 0x1 PUSH1 0x3 PUSH1 0x0 PUSH2 0x520 PUSH1 0x20 DUP11 ADD DUP11 PUSH2 0xD7F JUMP JUMPDEST PUSH1 0x1 PUSH1 0x1 PUSH1 0xA0 SHL SUB AND PUSH1 0x1 PUSH1 0x1 PUSH1 0xA0 SHL SUB AND DUP2 MSTORE PUSH1 0x20 ADD SWAP1 DUP2 MSTORE PUSH1 0x20 ADD PUSH1 0x0 KECCAK256 PUSH1 0x0 DUP3 DUP3 SLOAD PUSH2 0x54F SWAP2 SWAP1 PUSH2 0x1074 JUMP JUMPDEST SWAP1 SWAP2 SSTORE POP POP PUSH1 0x1 PUSH1 0x1 PUSH1 0xA0 SHL SUB PUSH32 0x0 AND PUSH4 0x79CC6790 PUSH2 0x590 PUSH1 0x20 DUP10 ADD DUP10 PUSH2 0xD7F JUMP JUMPDEST PUSH1 0x2 SLOAD PUSH1 0x40 MLOAD PUSH1 0x1 PUSH1 0x1 PUSH1 0xE0 SHL SUB NOT PUSH1 0xE0 DUP6 SWAP1 SHL AND DUP2 MSTORE PUSH1 0x1 PUSH1 0x1 PUSH1 0xA0 SHL SUB SWAP1 SWAP3 AND PUSH1 0x4 DUP4 ADD MSTORE PUSH1 0x24 DUP3 ADD MSTORE PUSH1 0x44 ADD PUSH1 0x0 PUSH1 0x40 MLOAD DUP1 DUP4 SUB DUP2 PUSH1 0x0 DUP8 DUP1 EXTCODESIZE ISZERO DUP1 ISZERO PUSH2 0x5D9 JUMPI PUSH1 0x0 DUP1 REVERT JUMPDEST POP GAS CALL ISZERO DUP1 ISZERO PUSH2 0x5ED JUMPI RETURNDATASIZE PUSH1 0x0 DUP1 RETURNDATACOPY RETURNDATASIZE PUSH1 0x0 REVERT JUMPDEST POP PUSH2 0x624 SWAP3 POP PUSH2 0x603 SWAP2 POP POP PUSH1 0x20 DUP9 ADD DUP9 PUSH2 0xD7F JUMP JUMPDEST PUSH2 0x610 PUSH1 0x20 DUP10 ADD DUP10 PUSH2 0xFD4 JUMP JUMPDEST PUSH2 0x61D PUSH1 0x40 DUP12 ADD DUP12 PUSH2 0xFD4 JUMP JUMPDEST PUSH1 0x1 PUSH2 0x6FD JUMP JUMPDEST POP POP POP POP POP POP JUMP JUMPDEST PUSH2 0x63B CALLER DUP6 DUP6 DUP6 DUP6 PUSH1 0x0 PUSH2 0x6FD JUMP JUMPDEST POP POP POP POP JUMP JUMPDEST PUSH1 0x60 PUSH2 0x66E PUSH32 0x0 PUSH1 0x0 PUSH2 0x87D JUMP JUMPDEST SWAP1 POP SWAP1 JUMP JUMPDEST PUSH1 0x60 PUSH2 0x66E PUSH32 0x0 PUSH1 0x1 PUSH2 0x87D JUMP JUMPDEST PUSH1 0x0 PUSH2 0x6CD PUSH2 0x6AD PUSH2 0x928 JUMP JUMPDEST DUP4 PUSH1 0x40 MLOAD PUSH2 0x1901 PUSH1 0xF0 SHL DUP2 MSTORE PUSH1 0x2 DUP2 ADD SWAP3 SWAP1 SWAP3 MSTORE PUSH1 0x22 DUP3 ADD MSTORE PUSH1 0x42 SWAP1 KECCAK256 SWAP1 JUMP JUMPDEST SWAP3 SWAP2 POP POP JUMP JUMPDEST PUSH1 0x0 DUP1 PUSH1 0x0 DUP1 PUSH2 0x6E3 DUP7 DUP7 PUSH2 0xA53 JUMP JUMPDEST SWAP3 POP SWAP3 POP SWAP3 POP PUSH2 0x6F3 DUP3 DUP3 PUSH2 0xAA0 JUMP JUMPDEST POP SWAP1 SWAP5 SWAP4 POP POP POP POP JUMP JUMPDEST PUSH1 0x1 PUSH1 0x1 PUSH1 0xA0 SHL SUB DUP1 DUP8 AND PUSH1 0x0 SWAP1 DUP2 MSTORE PUSH1 0x4 PUSH1 0x20 MSTORE PUSH1 0x40 SWAP1 KECCAK256 SLOAD AND DUP1 PUSH2 0x736 JUMPI PUSH1 0x40 MLOAD PUSH4 0x2BC85F7 PUSH1 0xE5 SHL DUP2 MSTORE PUSH1 0x4 ADD PUSH1 0x40 MLOAD DUP1 SWAP2 SUB SWAP1 REVERT JUMPDEST DUP5 DUP4 EQ PUSH2 0x756 JUMPI PUSH1 0x40 MLOAD PUSH4 0xB4FA3FB3 PUSH1 0xE0 SHL DUP2 MSTORE PUSH1 0x4 ADD PUSH1 0x40 MLOAD DUP1 SWAP2 SUB SWAP1 REVERT JUMPDEST PUSH1 0x0 JUMPDEST DUP6 DUP2 LT ISZERO PUSH2 0x82C JUMPI PUSH1 0x0 DUP8 DUP8 DUP4 DUP2 DUP2 LT PUSH2 0x775 JUMPI PUSH2 0x775 PUSH2 0x1087 JUMP JUMPDEST SWAP1 POP PUSH1 0x20 MUL ADD PUSH1 0x20 DUP2 ADD SWAP1 PUSH2 0x78A SWAP2 SWAP1 PUSH2 0xD7F JUMP JUMPDEST PUSH1 0x40 MLOAD PUSH4 0x70A08231 PUSH1 0xE0 SHL DUP2 MSTORE PUSH1 0x1 PUSH1 0x1 PUSH1 0xA0 SHL SUB DUP12 DUP2 AND PUSH1 0x4 DUP4 ADD MSTORE SWAP2 SWAP3 POP PUSH1 0x0 SWAP2 DUP4 AND SWAP1 PUSH4 0x70A08231 SWAP1 PUSH1 0x24 ADD PUSH1 0x20 PUSH1 0x40 MLOAD DUP1 DUP4 SUB DUP2 DUP7 GAS STATICCALL ISZERO DUP1 ISZERO PUSH2 0x7D6 JUMPI RETURNDATASIZE PUSH1 0x0 DUP1 RETURNDATACOPY RETURNDATASIZE PUSH1 0x0 REVERT JUMPDEST POP POP POP POP PUSH1 0x40 MLOAD RETURNDATASIZE PUSH1 0x1F NOT PUSH1 0x1F DUP3 ADD AND DUP3 ADD DUP1 PUSH1 0x40 MSTORE POP DUP2 ADD SWAP1 PUSH2 0x7FA SWAP2 SWAP1 PUSH2 0x109D JUMP JUMPDEST SWAP1 POP DUP1 ISZERO PUSH2 0x817 JUMPI PUSH2 0x817 PUSH1 0x1 PUSH1 0x1 PUSH1 0xA0 SHL SUB DUP4 AND DUP12 DUP7 DUP5 PUSH2 0xB62 JUMP JUMPDEST POP POP DUP1 DUP1 PUSH2 0x824 SWAP1 PUSH2 0x10B6 JUMP JUMPDEST SWAP2 POP POP PUSH2 0x759 JUMP JUMPDEST POP PUSH1 0x40 DUP1 MLOAD PUSH1 0x1 PUSH1 0x1 PUSH1 0xA0 SHL SUB DUP4 DUP2 AND DUP3 MSTORE DUP5 ISZERO ISZERO PUSH1 0x20 DUP4 ADD MSTORE DUP10 AND SWAP2 PUSH32 0x853A67783E8712CB487083D52E172E0BB70E962D475B3725CD0D16C624C572E7 SWAP2 ADD PUSH1 0x40 MLOAD DUP1 SWAP2 SUB SWAP1 LOG2 POP POP POP POP POP POP POP JUMP JUMPDEST PUSH1 0x60 PUSH1 0xFF DUP4 EQ PUSH2 0x897 JUMPI PUSH2 0x890 DUP4 PUSH2 0xBBC JUMP JUMPDEST SWAP1 POP PUSH2 0x6CD JUMP JUMPDEST DUP2 DUP1 SLOAD PUSH2 0x8A3 SWAP1 PUSH2 0x10CF JUMP JUMPDEST DUP1 PUSH1 0x1F ADD PUSH1 0x20 DUP1 SWAP2 DIV MUL PUSH1 0x20 ADD PUSH1 0x40 MLOAD SWAP1 DUP2 ADD PUSH1 0x40 MSTORE DUP1 SWAP3 SWAP2 SWAP1 DUP2 DUP2 MSTORE PUSH1 0x20 ADD DUP3 DUP1 SLOAD PUSH2 0x8CF SWAP1 PUSH2 0x10CF JUMP JUMPDEST DUP1 ISZERO PUSH2 0x91C JUMPI DUP1 PUSH1 0x1F LT PUSH2 0x8F1 JUMPI PUSH2 0x100 DUP1 DUP4 SLOAD DIV MUL DUP4 MSTORE SWAP2 PUSH1 0x20 ADD SWAP2 PUSH2 0x91C JUMP JUMPDEST DUP3 ADD SWAP2 SWAP1 PUSH1 0x0 MSTORE PUSH1 0x20 PUSH1 0x0 KECCAK256 SWAP1 JUMPDEST DUP2 SLOAD DUP2 MSTORE SWAP1 PUSH1 0x1 ADD SWAP1 PUSH1 0x20 ADD DUP1 DUP4 GT PUSH2 0x8FF JUMPI DUP3 SWAP1 SUB PUSH1 0x1F AND DUP3 ADD SWAP2 JUMPDEST POP POP POP POP POP SWAP1 POP PUSH2 0x6CD JUMP JUMPDEST PUSH1 0x0 ADDRESS PUSH1 0x1 PUSH1 0x1 PUSH1 0xA0 SHL SUB PUSH32 0x0 AND EQ DUP1 ISZERO PUSH2 0x981 JUMPI POP PUSH32 0x0 CHAINID EQ JUMPDEST ISZERO PUSH2 0x9AB JUMPI POP PUSH32 0x0 SWAP1 JUMP JUMPDEST PUSH2 0x66E PUSH1 0x40 DUP1 MLOAD PUSH32 0x8B73C3C69BB8FE3D512ECC4CF759CC79239F7B179B0FFACAA9A75D522B39400F PUSH1 0x20 DUP3 ADD MSTORE PUSH32 0x0 SWAP2 DUP2 ADD SWAP2 SWAP1 SWAP2 MSTORE PUSH32 0x0 PUSH1 0x60 DUP3 ADD MSTORE CHAINID PUSH1 0x80 DUP3 ADD MSTORE ADDRESS PUSH1 0xA0 DUP3 ADD MSTORE PUSH1 0x0 SWAP1 PUSH1 0xC0 ADD PUSH1 0x40 MLOAD PUSH1 0x20 DUP2 DUP4 SUB SUB DUP2 MSTORE SWAP1 PUSH1 0x40 MSTORE DUP1 MLOAD SWAP1 PUSH1 0x20 ADD KECCAK256 SWAP1 POP SWAP1 JUMP JUMPDEST PUSH1 0x0 DUP1 PUSH1 0x0 DUP4 MLOAD PUSH1 0x41 SUB PUSH2 0xA8D JUMPI PUSH1 0x20 DUP5 ADD MLOAD PUSH1 0x40 DUP6 ADD MLOAD PUSH1 0x60 DUP7 ADD MLOAD PUSH1 0x0 BYTE PUSH2 0xA7F DUP9 DUP3 DUP6 DUP6 PUSH2 0xBFB JUMP JUMPDEST SWAP6 POP SWAP6 POP SWAP6 POP POP POP POP PUSH2 0xA99 JUMP JUMPDEST POP POP DUP2 MLOAD PUSH1 0x0 SWAP2 POP PUSH1 0x2 SWAP1 JUMPDEST SWAP3 POP SWAP3 POP SWAP3 JUMP JUMPDEST PUSH1 0x0 DUP3 PUSH1 0x3 DUP2 GT ISZERO PUSH2 0xAB4 JUMPI PUSH2 0xAB4 PUSH2 0x1109 JUMP JUMPDEST SUB PUSH2 0xABD JUMPI POP POP JUMP JUMPDEST PUSH1 0x1 DUP3 PUSH1 0x3 DUP2 GT ISZERO PUSH2 0xAD1 JUMPI PUSH2 0xAD1 PUSH2 0x1109 JUMP JUMPDEST SUB PUSH2 0xAEF JUMPI PUSH1 0x40 MLOAD PUSH4 0xF645EEDF PUSH1 0xE0 SHL DUP2 MSTORE PUSH1 0x4 ADD PUSH1 0x40 MLOAD DUP1 SWAP2 SUB SWAP1 REVERT JUMPDEST PUSH1 0x2 DUP3 PUSH1 0x3 DUP2 GT ISZERO PUSH2 0xB03 JUMPI PUSH2 0xB03 PUSH2 0x1109 JUMP JUMPDEST SUB PUSH2 0xB29 JUMPI PUSH1 0x40 MLOAD PUSH4 0xFCE698F7 PUSH1 0xE0 SHL DUP2 MSTORE PUSH1 0x4 DUP2 ADD DUP3 SWAP1 MSTORE PUSH1 0x24 ADD JUMPDEST PUSH1 0x40 MLOAD DUP1 SWAP2 SUB SWAP1 REVERT JUMPDEST PUSH1 0x3 DUP3 PUSH1 0x3 DUP2 GT ISZERO PUSH2 0xB3D JUMPI PUSH2 0xB3D PUSH2 0x1109 JUMP JUMPDEST SUB PUSH2 0xB5E JUMPI PUSH1 0x40 MLOAD PUSH4 0x35E2F383 PUSH1 0xE2 SHL DUP2 MSTORE PUSH1 0x4 DUP2 ADD DUP3 SWAP1 MSTORE PUSH1 0x24 ADD PUSH2 0xB20 JUMP JUMPDEST POP POP JUMP JUMPDEST PUSH1 0x40 DUP1 MLOAD PUSH1 0x1 PUSH1 0x1 PUSH1 0xA0 SHL SUB DUP6 DUP2 AND PUSH1 0x24 DUP4 ADD MSTORE DUP5 AND PUSH1 0x44 DUP3 ADD MSTORE PUSH1 0x64 DUP1 DUP3 ADD DUP5 SWAP1 MSTORE DUP3 MLOAD DUP1 DUP4 SUB SWAP1 SWAP2 ADD DUP2 MSTORE PUSH1 0x84 SWAP1 SWAP2 ADD SWAP1 SWAP2 MSTORE PUSH1 0x20 DUP2 ADD DUP1 MLOAD PUSH1 0x1 PUSH1 0x1 PUSH1 0xE0 SHL SUB AND PUSH4 0x23B872DD PUSH1 0xE0 SHL OR SWAP1 MSTORE PUSH2 0x63B SWAP1 DUP6 SWAP1 PUSH2 0xCCA JUMP JUMPDEST PUSH1 0x60 PUSH1 0x0 PUSH2 0xBC9 DUP4 PUSH2 0xD3B JUMP JUMPDEST PUSH1 0x40 DUP1 MLOAD PUSH1 0x20 DUP1 DUP3 MSTORE DUP2 DUP4 ADD SWAP1 SWAP3 MSTORE SWAP2 SWAP3 POP PUSH1 0x0 SWAP2 SWAP1 PUSH1 0x20 DUP3 ADD DUP2 DUP1 CALLDATASIZE DUP4 CALLDATACOPY POP POP POP SWAP2 DUP3 MSTORE POP PUSH1 0x20 DUP2 ADD SWAP3 SWAP1 SWAP3 MSTORE POP SWAP1 JUMP JUMPDEST PUSH1 0x0 DUP1 DUP1 PUSH32 0x7FFFFFFFFFFFFFFFFFFFFFFFFFFFFFFF5D576E7357A4501DDFE92F46681B20A0 DUP5 GT ISZERO PUSH2 0xC36 JUMPI POP PUSH1 0x0 SWAP2 POP PUSH1 0x3 SWAP1 POP DUP3 PUSH2 0xCC0 JUMP JUMPDEST PUSH1 0x40 DUP1 MLOAD PUSH1 0x0 DUP1 DUP3 MSTORE PUSH1 0x20 DUP3 ADD DUP1 DUP5 MSTORE DUP11 SWAP1 MSTORE PUSH1 0xFF DUP10 AND SWAP3 DUP3 ADD SWAP3 SWAP1 SWAP3 MSTORE PUSH1 0x60 DUP2 ADD DUP8 SWAP1 MSTORE PUSH1 0x80 DUP2 ADD DUP7 SWAP1 MSTORE PUSH1 0x1 SWAP1 PUSH1 0xA0 ADD PUSH1 0x20 PUSH1 0x40 MLOAD PUSH1 0x20 DUP2 SUB SWAP1 DUP1 DUP5 SUB SWAP1 DUP6 GAS STATICCALL ISZERO DUP1 ISZERO PUSH2 0xC8A JUMPI RETURNDATASIZE PUSH1 0x0 DUP1 RETURNDATACOPY RETURNDATASIZE PUSH1 0x0 REVERT JUMPDEST POP POP PUSH1 0x40 MLOAD PUSH1 0x1F NOT ADD MLOAD SWAP2 POP POP PUSH1 0x1 PUSH1 0x1 PUSH1 0xA0 SHL SUB DUP2 AND PUSH2 0xCB6 JUMPI POP PUSH1 0x0 SWAP3 POP PUSH1 0x1 SWAP2 POP DUP3 SWAP1 POP PUSH2 0xCC0 JUMP JUMPDEST SWAP3 POP PUSH1 0x0 SWAP2 POP DUP2 SWAP1 POP JUMPDEST SWAP5 POP SWAP5 POP SWAP5 SWAP2 POP POP JUMP JUMPDEST PUSH1 0x0 DUP1 PUSH1 0x20 PUSH1 0x0 DUP5 MLOAD PUSH1 0x20 DUP7 ADD PUSH1 0x0 DUP9 GAS CALL DUP1 PUSH2 0xCED JUMPI PUSH1 0x40 MLOAD RETURNDATASIZE PUSH1 0x0 DUP3 RETURNDATACOPY RETURNDATASIZE DUP2 REVERT JUMPDEST POP POP PUSH1 0x0 MLOAD RETURNDATASIZE SWAP2 POP DUP2 ISZERO PUSH2 0xD05 JUMPI DUP1 PUSH1 0x1 EQ ISZERO PUSH2 0xD12 JUMP JUMPDEST PUSH1 0x1 PUSH1 0x1 PUSH1 0xA0 SHL SUB DUP5 AND EXTCODESIZE ISZERO JUMPDEST ISZERO PUSH2 0x63B JUMPI PUSH1 0x40 MLOAD PUSH4 0x5274AFE7 PUSH1 0xE0 SHL DUP2 MSTORE PUSH1 0x1 PUSH1 0x1 PUSH1 0xA0 SHL SUB DUP6 AND PUSH1 0x4 DUP3 ADD MSTORE PUSH1 0x24 ADD PUSH2 0xB20 JUMP JUMPDEST PUSH1 0x0 PUSH1 0xFF DUP3 AND PUSH1 0x1F DUP2 GT ISZERO PUSH2 0x6CD JUMPI PUSH1 0x40 MLOAD PUSH4 0x2CD44AC3 PUSH1 0xE2 SHL DUP2 MSTORE PUSH1 0x4 ADD PUSH1 0x40 MLOAD DUP1 SWAP2 SUB SWAP1 REVERT JUMPDEST DUP1 CALLDATALOAD PUSH1 0x1 PUSH1 0x1 PUSH1 0xA0 SHL SUB DUP2 AND DUP2 EQ PUSH2 0xD7A JUMPI PUSH1 0x0 DUP1 REVERT JUMPDEST SWAP2 SWAP1 POP JUMP JUMPDEST PUSH1 0x0 PUSH1 0x20 DUP3 DUP5 SUB SLT ISZERO PUSH2 0xD91 JUMPI PUSH1 0x0 DUP1 REVERT JUMPDEST PUSH2 0xD9A DUP3 PUSH2 0xD63 JUMP JUMPDEST SWAP4 SWAP3 POP POP POP JUMP JUMPDEST PUSH1 0x0 DUP2 MLOAD DUP1 DUP5 MSTORE PUSH1 0x0 JUMPDEST DUP2 DUP2 LT ISZERO PUSH2 0xDC7 JUMPI PUSH1 0x20 DUP2 DUP6 ADD DUP2 ADD MLOAD DUP7 DUP4 ADD DUP3 ADD MSTORE ADD PUSH2 0xDAB JUMP JUMPDEST POP PUSH1 0x0 PUSH1 0x20 DUP3 DUP7 ADD ADD MSTORE PUSH1 0x20 PUSH1 0x1F NOT PUSH1 0x1F DUP4 ADD AND DUP6 ADD ADD SWAP2 POP POP SWAP3 SWAP2 POP POP JUMP JUMPDEST PUSH1 0xFF PUSH1 0xF8 SHL DUP9 AND DUP2 MSTORE PUSH1 0x0 PUSH1 0x20 PUSH1 0xE0 DUP2 DUP5 ADD MSTORE PUSH2 0xE07 PUSH1 0xE0 DUP5 ADD DUP11 PUSH2 0xDA1 JUMP JUMPDEST DUP4 DUP2 SUB PUSH1 0x40 DUP6 ADD MSTORE PUSH2 0xE19 DUP2 DUP11 PUSH2 0xDA1 JUMP JUMPDEST PUSH1 0x60 DUP6 ADD DUP10 SWAP1 MSTORE PUSH1 0x1 PUSH1 0x1 PUSH1 0xA0 SHL SUB DUP9 AND PUSH1 0x80 DUP7 ADD MSTORE PUSH1 0xA0 DUP6 ADD DUP8 SWAP1 MSTORE DUP5 DUP2 SUB PUSH1 0xC0 DUP7 ADD MSTORE DUP6 MLOAD DUP1 DUP3 MSTORE DUP4 DUP8 ADD SWAP3 POP SWAP1 DUP4 ADD SWAP1 PUSH1 0x0 JUMPDEST DUP2 DUP2 LT ISZERO PUSH2 0xE6B JUMPI DUP4 MLOAD DUP4 MSTORE SWAP3 DUP5 ADD SWAP3 SWAP2 DUP5 ADD SWAP2 PUSH1 0x1 ADD PUSH2 0xE4F JUMP JUMPDEST POP SWAP1 SWAP13 SWAP12 POP POP POP POP POP POP POP POP POP POP POP POP JUMP JUMPDEST PUSH1 0x0 DUP1 PUSH1 0x0 PUSH1 0x40 DUP5 DUP7 SUB SLT ISZERO PUSH2 0xE92 JUMPI PUSH1 0x0 DUP1 REVERT JUMPDEST DUP4 CALLDATALOAD PUSH8 0xFFFFFFFFFFFFFFFF DUP1 DUP3 GT ISZERO PUSH2 0xEAA JUMPI PUSH1 0x0 DUP1 REVERT JUMPDEST SWAP1 DUP6 ADD SWAP1 PUSH1 0xC0 DUP3 DUP9 SUB SLT ISZERO PUSH2 0xEBE JUMPI PUSH1 0x0 DUP1 REVERT JUMPDEST SWAP1 SWAP4 POP PUSH1 0x20 DUP6 ADD CALLDATALOAD SWAP1 DUP1 DUP3 GT ISZERO PUSH2 0xED4 JUMPI PUSH1 0x0 DUP1 REVERT JUMPDEST DUP2 DUP7 ADD SWAP2 POP DUP7 PUSH1 0x1F DUP4 ADD SLT PUSH2 0xEE8 JUMPI PUSH1 0x0 DUP1 REVERT JUMPDEST DUP2 CALLDATALOAD DUP2 DUP2 GT ISZERO PUSH2 0xEF7 JUMPI PUSH1 0x0 DUP1 REVERT JUMPDEST DUP8 PUSH1 0x20 DUP3 DUP6 ADD ADD GT ISZERO PUSH2 0xF09 JUMPI PUSH1 0x0 DUP1 REVERT JUMPDEST PUSH1 0x20 DUP4 ADD SWAP5 POP DUP1 SWAP4 POP POP POP POP SWAP3 POP SWAP3 POP SWAP3 JUMP JUMPDEST PUSH1 0x0 DUP1 DUP4 PUSH1 0x1F DUP5 ADD SLT PUSH2 0xF2E JUMPI PUSH1 0x0 DUP1 REVERT JUMPDEST POP DUP2 CALLDATALOAD PUSH8 0xFFFFFFFFFFFFFFFF DUP2 GT ISZERO PUSH2 0xF46 JUMPI PUSH1 0x0 DUP1 REVERT JUMPDEST PUSH1 0x20 DUP4 ADD SWAP2 POP DUP4 PUSH1 0x20 DUP3 PUSH1 0x5 SHL DUP6 ADD ADD GT ISZERO PUSH2 0xF61 JUMPI PUSH1 0x0 DUP1 REVERT JUMPDEST SWAP3 POP SWAP3 SWAP1 POP JUMP JUMPDEST PUSH1 0x0 DUP1 PUSH1 0x0 DUP1 PUSH1 0x40 DUP6 DUP8 SUB SLT ISZERO PUSH2 0xF7E JUMPI PUSH1 0x0 DUP1 REVERT JUMPDEST DUP5 CALLDATALOAD PUSH8 0xFFFFFFFFFFFFFFFF DUP1 DUP3 GT ISZERO PUSH2 0xF96 JUMPI PUSH1 0x0 DUP1 REVERT JUMPDEST PUSH2 0xFA2 DUP9 DUP4 DUP10 ADD PUSH2 0xF1C JUMP JUMPDEST SWAP1 SWAP7 POP SWAP5 POP PUSH1 0x20 DUP8 ADD CALLDATALOAD SWAP2 POP DUP1 DUP3 GT ISZERO PUSH2 0xFBB JUMPI PUSH1 0x0 DUP1 REVERT JUMPDEST POP PUSH2 0xFC8 DUP8 DUP3 DUP9 ADD PUSH2 0xF1C JUMP JUMPDEST SWAP6 SWAP9 SWAP5 SWAP8 POP SWAP6 POP POP POP POP JUMP JUMPDEST PUSH1 0x0 DUP1 DUP4 CALLDATALOAD PUSH1 0x1E NOT DUP5 CALLDATASIZE SUB ADD DUP2 SLT PUSH2 0xFEB JUMPI PUSH1 0x0 DUP1 REVERT JUMPDEST DUP4 ADD DUP1 CALLDATALOAD SWAP2 POP PUSH8 0xFFFFFFFFFFFFFFFF DUP3 GT ISZERO PUSH2 0x1006 JUMPI PUSH1 0x0 DUP1 REVERT JUMPDEST PUSH1 0x20 ADD SWAP2 POP PUSH1 0x5 DUP2 SWAP1 SHL CALLDATASIZE SUB DUP3 SGT ISZERO PUSH2 0xF61 JUMPI PUSH1 0x0 DUP1 REVERT JUMPDEST PUSH1 0x0 DUP2 DUP5 DUP3 JUMPDEST DUP6 DUP2 LT ISZERO PUSH2 0x1053 JUMPI PUSH1 0x1 PUSH1 0x1 PUSH1 0xA0 SHL SUB PUSH2 0x103D DUP4 PUSH2 0xD63 JUMP JUMPDEST AND DUP4 MSTORE PUSH1 0x20 SWAP3 DUP4 ADD SWAP3 SWAP2 SWAP1 SWAP2 ADD SWAP1 PUSH1 0x1 ADD PUSH2 0x1024 JUMP JUMPDEST POP SWAP1 SWAP6 SWAP5 POP POP POP POP POP JUMP JUMPDEST PUSH4 0x4E487B71 PUSH1 0xE0 SHL PUSH1 0x0 MSTORE PUSH1 0x11 PUSH1 0x4 MSTORE PUSH1 0x24 PUSH1 0x0 REVERT JUMPDEST DUP1 DUP3 ADD DUP1 DUP3 GT ISZERO PUSH2 0x6CD JUMPI PUSH2 0x6CD PUSH2 0x105E JUMP JUMPDEST PUSH4 0x4E487B71 PUSH1 0xE0 SHL PUSH1 0x0 MSTORE PUSH1 0x32 PUSH1 0x4 MSTORE PUSH1 0x24 PUSH1 0x0 REVERT JUMPDEST PUSH1 0x0 PUSH1 0x20 DUP3 DUP5 SUB SLT ISZERO PUSH2 0x10AF JUMPI PUSH1 0x0 DUP1 REVERT JUMPDEST POP MLOAD SWAP2 SWAP1 POP JUMP JUMPDEST PUSH1 0x0 PUSH1 0x1 DUP3 ADD PUSH2 0x10C8 JUMPI PUSH2 0x10C8 PUSH2 0x105E JUMP JUMPDEST POP PUSH1 0x1 ADD SWAP1 JUMP JUMPDEST PUSH1 0x1 DUP2 DUP2 SHR SWAP1 DUP3 AND DUP1 PUSH2 0x10E3 JUMPI PUSH1 0x7F DUP3 AND SWAP2 POP JUMPDEST PUSH1 0x20 DUP3 LT DUP2 SUB PUSH2 0x1103 JUMPI PUSH4 0x4E487B71 PUSH1 0xE0 SHL PUSH1 0x0 MSTORE PUSH1 0x22 PUSH1 0x4 MSTORE PUSH1 0x24 PUSH1 0x0 REVERT JUMPDEST POP SWAP2 SWAP1 POP JUMP JUMPDEST PUSH4 0x4E487B71 PUSH1 0xE0 SHL PUSH1 0x0 MSTORE PUSH1 0x21 PUSH1 0x4 MSTORE PUSH1 0x24 PUSH1 0x0 REVERT INVALID LOG2 PUSH5 0x6970667358 0x22 SLT KECCAK256 0x21 KECCAK256 REVERT 0xB6 SWAP4 0xB3 0xD8 0xE0 SWAP10 0xC ADD PUSH26 0xE02C1F65F85B0CEF70C9FB1DF6A945E3BE50A55264736F6C6343 STOP ADDMOD EQ STOP CALLER "},"methodIdentifiers":{"eip712Domain()":"84b0196e","nonces(address)":"7ecebe00","panicDirect(address[],address[])":"f14fb0b5","panicRelay((address,address[],address[],address,uint256,uint256),bytes)":"f0f14d27","panicToken()":"4375f683","relayCost()":"0c95878d","safeAddresses(address)":"830b76ab","setSafeAddress(address)":"1ec49909"}}}}}