{
  "_format": "hh-sol-artifact-1",
  "contractName": "PanicVault",
  "sourceName": "contracts/PanicVault.sol",
  "abi": [
    {
      "inputs": [
        {
          "internalType": "address",
          "name": "panicToken_",
          "type": "address"
        },
        {
          "internalType": "uint256",
          "name": "relayCost_",
          "type": "uint256"
        }
      ],
      "stateMutability": "nonpayable",
      "type": "constructor"
    },
    {
      "inputs": [],
      "name": "DeadlineExpired",
      "type": "error"
    },
    {
      "inputs": [],
      "name": "ECDSAInvalidSignature",
      "type": "error"
    },
    {
      "inputs": [
        {
          "internalType": "uint256",
          "name": "length",
          "type": "uint256"
        }
      ],
      "name": "ECDSAInvalidSignatureLength",
      "type": "error"
    },
    {
      "inputs": [
        {
          "internalType": "bytes32",
          "name": "s",
          "type": "bytes32"
        }
      ],
      "name": "ECDSAInvalidSignatureS",
      "type": "error"
    },
    {
      "inputs": [],
      "name": "InvalidInput",
      "type": "error"
    },
    {
      "inputs": [],
      "name": "InvalidShortString",
      "type": "error"
    },
    {
      "inputs": [],
      "name": "InvalidSignature",
      "type": "error"
    },
    {
      "inputs": [],
      "name": "SafeAddressMismatch",
      "type": "error"
    },
    {
      "inputs": [],
      "name": "SafeAddressRequired",
      "type": "error"
    },
    {
      "inputs": [
        {
          "internalType": "address",
          "name": "token",
          "type": "address"
        }
      ],
      "name": "SafeERC20FailedOperation",
      "type": "error"
    },
    {
      "inputs": [
        {
          "internalType": "string",
          "name": "str",
          "type": "string"
        }
      ],
      "name": "StringTooLong",
      "type": "error"
    },
    {
      "anonymous": false,
      "inputs": [],
      "name": "EIP712DomainChanged",
      "type": "event"
    },
    {
      "anonymous": false,
      "inputs": [
        {
          "indexed": true,
          "internalType": "address",
          "name": "user",
          "type": "address"
        },
        {
          "indexed": false,
          "internalType": "address",
          "name": "safeAddress",
          "type": "address"
        },
        {
          "indexed": false,
          "internalType": "bool",
          "name": "relayMode",
          "type": "bool"
        }
      ],
      "name": "PanicExecuted",
      "type": "event"
    },
    {
      "anonymous": false,
      "inputs": [
        {
          "indexed": true,
          "internalType": "address",
          "name": "user",
          "type": "address"
        },
        {
          "indexed": false,
          "internalType": "address",
          "name": "safeAddress",
          "type": "address"
        }
      ],
      "name": "SafeAddressSet",
      "type": "event"
    },
    {
      "inputs": [],
      "name": "eip712Domain",
      "outputs": [
        {
          "internalType": "bytes1",
          "name": "fields",
          "type": "bytes1"
        },
        {
          "internalType": "string",
          "name": "name",
          "type": "string"
        },
        {
          "internalType": "string",
          "name": "version",
          "type": "string"
        },
        {
          "internalType": "uint256",
          "name": "chainId",
          "type": "uint256"
        },
        {
          "internalType": "address",
          "name": "verifyingContract",
          "type": "address"
        },
        {
          "internalType": "bytes32",
          "name": "salt",
          "type": "bytes32"
        },
        {
          "internalType": "uint256[]",
          "name": "extensions",
          "type": "uint256[]"
        }
      ],
      "stateMutability": "view",
      "type": "function"
    },
    {
      "inputs": [
        {
          "internalType": "address",
          "name": "",
          "type": "address"
        }
      ],
      "name": "nonces",
      "outputs": [
        {
          "internalType": "uint256",
          "name": "",
          "type": "uint256"
        }
      ],
      "stateMutability": "view",
      "type": "function"
    },
    {
      "inputs": [
        {
          "internalType": "address[]",
          "name": "tokens",
          "type": "address[]"
        },
        {
          "internalType": "address[]",
          "name": "spenders",
          "type": "address[]"
        }
      ],
      "name": "panicDirect",
      "outputs": [],
      "stateMutability": "nonpayable",
      "type": "function"
    },
    {
      "inputs": [
        {
          "components": [
            {
              "internalType": "address",
              "name": "user",
              "type": "address"
            },
            {
              "internalType": "address[]",
              "name": "tokens",
              "type": "address[]"
            },
            {
              "internalType": "address[]",
              "name": "spenders",
              "type": "address[]"
            },
            {
              "internalType": "address",
              "name": "safeAddress",
              "type": "address"
            },
            {
              "internalType": "uint256",
              "name": "deadline",
              "type": "uint256"
            },
            {
              "internalType": "uint256",
              "name": "nonce",
              "type": "uint256"
            }
          ],
          "internalType": "struct PanicVault.RelayPanic",
          "name": "request",
          "type": "tuple"
        },
        {
          "internalType": "bytes",
          "name": "signature",
          "type": "bytes"
        }
      ],
      "name": "panicRelay",
      "outputs": [],
      "stateMutability": "nonpayable",
      "type": "function"
    },
    {
      "inputs": [],
      "name": "panicToken",
      "outputs": [
        {
          "internalType": "contract PANICToken",
          "name": "",
          "type": "address"
        }
      ],
      "stateMutability": "view",
      "type": "function"
    },
    {
      "inputs": [],
      "name": "relayCost",
      "outputs": [
        {
          "internalType": "uint256",
          "name": "",
          "type": "uint256"
        }
      ],
      "stateMutability": "view",
      "type": "function"
    },
    {
      "inputs": [
        {
          "internalType": "address",
          "name": "",
          "type": "address"
        }
      ],
      "name": "safeAddresses",
      "outputs": [
        {
          "internalType": "address",
          "name": "",
          "type": "address"
        }
      ],
      "stateMutability": "view",
      "type": "function"
    },
    {
      "inputs": [
        {
          "internalType": "address",
          "name": "safeAddress",
          "type": "address"
        }
      ],
      "name": "setSafeAddress",
      "outputs": [],
      "stateMutability": "nonpayable",
      "type": "function"
    }
  ],
  "bytecode": "0x6101806040523480156200001257600080fd5b50604051620015a5380380620015a58339810160408190526200003591620001c2565b604080518082018252600a81526914185b9a58d5985d5b1d60b21b602080830191909152825180840190935260018352603160f81b90830152906200007c8260006200013d565b610120526200008d8160016200013d565b61014052815160208084019190912060e052815190820120610100524660a0526200011b60e05161010051604080517f8b73c3c69bb8fe3d512ecc4cf759cc79239f7b179b0ffacaa9a75d522b39400f60208201529081019290925260608201524660808201523060a082015260009060c00160405160208183030381529060405280519060200120905090565b60805250503060c0526001600160a01b039190911661016052600255620003e4565b60006020835110156200015d57620001558362000176565b905062000170565b816200016a8482620002a3565b5060ff90505b92915050565b600080829050601f81511115620001ad578260405163305a27a960e01b8152600401620001a491906200036f565b60405180910390fd5b8051620001ba82620003bf565b179392505050565b60008060408385031215620001d657600080fd5b82516001600160a01b0381168114620001ee57600080fd5b6020939093015192949293505050565b634e487b7160e01b600052604160045260246000fd5b600181811c908216806200022957607f821691505b6020821081036200024a57634e487b7160e01b600052602260045260246000fd5b50919050565b601f8211156200029e57600081815260208120601f850160051c81016020861015620002795750805b601f850160051c820191505b818110156200029a5782815560010162000285565b5050505b505050565b81516001600160401b03811115620002bf57620002bf620001fe565b620002d781620002d0845462000214565b8462000250565b602080601f8311600181146200030f5760008415620002f65750858301515b600019600386901b1c1916600185901b1785556200029a565b600085815260208120601f198616915b8281101562000340578886015182559484019460019091019084016200031f565b50858210156200035f5787850151600019600388901b60f8161c191681555b5050505050600190811b01905550565b600060208083528351808285015260005b818110156200039e5785810183015185820160400152820162000380565b506000604082860101526040601f19601f8301168501019250505092915050565b805160208083015191908110156200024a5760001960209190910360031b1b16919050565b60805160a05160c05160e05161010051610120516101405161016051611155620004506000396000818160c3015261055e0152600061067a0152600061064801526000610a02015260006109da015260006109350152600061095f0152600061098901526111556000f3fe608060405234801561001057600080fd5b50600436106100885760003560e01c8063830b76ab1161005b578063830b76ab1461011d57806384b0196e14610146578063f0f14d2714610161578063f14fb0b51461017457600080fd5b80630c95878d1461008d5780631ec49909146100a95780634375f683146100be5780637ecebe00146100fd575b600080fd5b61009660025481565b6040519081526020015b60405180910390f35b6100bc6100b7366004610d7f565b610187565b005b6100e57f000000000000000000000000000000000000000000000000000000000000000081565b6040516001600160a01b0390911681526020016100a0565b61009661010b366004610d7f565b60036020526000908152604090205481565b6100e561012b366004610d7f565b6004602052600090815260409020546001600160a01b031681565b61014e610210565b6040516100a09796959493929190610de7565b6100bc61016f366004610e7d565b610256565b6100bc610182366004610f68565b61062c565b6001600160a01b0381166101ae576040516302bc85f760e51b815260040160405180910390fd5b3360008181526004602090815260409182902080546001600160a01b0319166001600160a01b03861690811790915591519182527fb0437bab3af73a1f47e797ecb5b13ec4cfd9ade4afd5042340786d911ce6eb79910160405180910390a250565b600060608060008060006060610224610641565b61022c610673565b60408051600080825260208201909252600f60f81b9b939a50919850469750309650945092509050565b826080013542111561027b57604051631ab7da6b60e01b815260040160405180910390fd5b600061028a6020850185610d7f565b6001600160a01b0316036102b15760405163b4fa3fb360e01b815260040160405180910390fd5b600360006102c26020860186610d7f565b6001600160a01b03166001600160a01b03168152602001908152602001600020548360a001351461030657604051638baa579f60e01b815260040160405180910390fd5b6103166080840160608501610d7f565b6001600160a01b0316600460006103306020870187610d7f565b6001600160a01b039081168252602082019290925260400160002054161461036b57604051631a94281b60e21b815260040160405180910390fd5b60007f1d870bfe09c2ad0f0c6c14f985c51f7cc871f00d94400dab32e9a470f8345e6f61039b6020860186610d7f565b6103a86020870187610fd4565b6040516020016103b992919061101e565b604051602081830303815290604052805190602001208680604001906103df9190610fd4565b6040516020016103f092919061101e565b60408051601f1981840301815291905280516020909101206104186080890160608a01610d7f565b6040805160208101969096526001600160a01b03948516908601526060850192909252608084810191909152911660a0838101919091529086013560c083015285013560e0820152610100016040516020818303038152906040528051906020012090506000610487826106a0565b905060006104cd85858080601f01602080910402602001604051908101604052809392919081815260200183838082843760009201919091525086939250506106d39050565b90506104dc6020870187610d7f565b6001600160a01b0316816001600160a01b03161461050d57604051638baa579f60e01b815260040160405180910390fd5b60016003600061052060208a018a610d7f565b6001600160a01b03166001600160a01b03168152602001908152602001600020600082825461054f9190611074565b90915550506001600160a01b037f0000000000000000000000000000000000000000000000000000000000000000166379cc67906105906020890189610d7f565b6002546040516001600160e01b031960e085901b1681526001600160a01b0390921660048301526024820152604401600060405180830381600087803b1580156105d957600080fd5b505af11580156105ed573d6000803e3d6000fd5b5061062492506106039150506020880188610d7f565b6106106020890189610fd4565b61061d60408b018b610fd4565b60016106fd565b505050505050565b61063b338585858560006106fd565b50505050565b606061066e7f0000000000000000000000000000000000000000000000000000000000000000600061087d565b905090565b606061066e7f0000000000000000000000000000000000000000000000000000000000000000600161087d565b60006106cd6106ad610928565b8360405161190160f01b8152600281019290925260228201526042902090565b92915050565b6000806000806106e38686610a53565b9250925092506106f38282610aa0565b5090949350505050565b6001600160a01b038087166000908152600460205260409020541680610736576040516302bc85f760e51b815260040160405180910390fd5b8483146107565760405163b4fa3fb360e01b815260040160405180910390fd5b60005b8581101561082c57600087878381811061077557610775611087565b905060200201602081019061078a9190610d7f565b6040516370a0823160e01b81526001600160a01b038b811660048301529192506000918316906370a0823190602401602060405180830381865afa1580156107d6573d6000803e3d6000fd5b505050506040513d601f19601f820116820180604052508101906107fa919061109d565b90508015610817576108176001600160a01b0383168b8684610b62565b50508080610824906110b6565b915050610759565b50604080516001600160a01b03838116825284151560208301528916917f853a67783e8712cb487083d52e172e0bb70e962d475b3725cd0d16c624c572e7910160405180910390a250505050505050565b606060ff83146108975761089083610bbc565b90506106cd565b8180546108a3906110cf565b80601f01602080910402602001604051908101604052809291908181526020018280546108cf906110cf565b801561091c5780601f106108f15761010080835404028352916020019161091c565b820191906000526020600020905b8154815290600101906020018083116108ff57829003601f168201915b505050505090506106cd565b6000306001600160a01b037f00000000000000000000000000000000000000000000000000000000000000001614801561098157507f000000000000000000000000000000000000000000000000000000000000000046145b156109ab57507f000000000000000000000000000000000000000000000000000000000000000090565b61066e604080517f8b73c3c69bb8fe3d512ecc4cf759cc79239f7b179b0ffacaa9a75d522b39400f60208201527f0000000000000000000000000000000000000000000000000000000000000000918101919091527f000000000000000000000000000000000000000000000000000000000000000060608201524660808201523060a082015260009060c00160405160208183030381529060405280519060200120905090565b60008060008351604103610a8d5760208401516040850151606086015160001a610a7f88828585610bfb565b955095509550505050610a99565b50508151600091506002905b9250925092565b6000826003811115610ab457610ab4611109565b03610abd575050565b6001826003811115610ad157610ad1611109565b03610aef5760405163f645eedf60e01b815260040160405180910390fd5b6002826003811115610b0357610b03611109565b03610b295760405163fce698f760e01b8152600481018290526024015b60405180910390fd5b6003826003811115610b3d57610b3d611109565b03610b5e576040516335e2f38360e21b815260048101829052602401610b20565b5050565b604080516001600160a01b0385811660248301528416604482015260648082018490528251808303909101815260849091019091526020810180516001600160e01b03166323b872dd60e01b17905261063b908590610cca565b60606000610bc983610d3b565b604080516020808252818301909252919250600091906020820181803683375050509182525060208101929092525090565b600080807f7fffffffffffffffffffffffffffffff5d576e7357a4501ddfe92f46681b20a0841115610c365750600091506003905082610cc0565b604080516000808252602082018084528a905260ff891692820192909252606081018790526080810186905260019060a0016020604051602081039080840390855afa158015610c8a573d6000803e3d6000fd5b5050604051601f1901519150506001600160a01b038116610cb657506000925060019150829050610cc0565b9250600091508190505b9450945094915050565b600080602060008451602086016000885af180610ced576040513d6000823e3d81fd5b50506000513d91508115610d05578060011415610d12565b6001600160a01b0384163b155b1561063b57604051635274afe760e01b81526001600160a01b0385166004820152602401610b20565b600060ff8216601f8111156106cd57604051632cd44ac360e21b815260040160405180910390fd5b80356001600160a01b0381168114610d7a57600080fd5b919050565b600060208284031215610d9157600080fd5b610d9a82610d63565b9392505050565b6000815180845260005b81811015610dc757602081850181015186830182015201610dab565b506000602082860101526020601f19601f83011685010191505092915050565b60ff60f81b881681526000602060e081840152610e0760e084018a610da1565b8381036040850152610e19818a610da1565b606085018990526001600160a01b038816608086015260a0850187905284810360c0860152855180825283870192509083019060005b81811015610e6b57835183529284019291840191600101610e4f565b50909c9b505050505050505050505050565b600080600060408486031215610e9257600080fd5b833567ffffffffffffffff80821115610eaa57600080fd5b9085019060c08288031215610ebe57600080fd5b90935060208501359080821115610ed457600080fd5b818601915086601f830112610ee857600080fd5b813581811115610ef757600080fd5b876020828501011115610f0957600080fd5b6020830194508093505050509250925092565b60008083601f840112610f2e57600080fd5b50813567ffffffffffffffff811115610f4657600080fd5b6020830191508360208260051b8501011115610f6157600080fd5b9250929050565b60008060008060408587031215610f7e57600080fd5b843567ffffffffffffffff80821115610f9657600080fd5b610fa288838901610f1c565b90965094506020870135915080821115610fbb57600080fd5b50610fc887828801610f1c565b95989497509550505050565b6000808335601e19843603018112610feb57600080fd5b83018035915067ffffffffffffffff82111561100657600080fd5b6020019150600581901b3603821315610f6157600080fd5b60008184825b85811015611053576001600160a01b0361103d83610d63565b1683526020928301929190910190600101611024565b509095945050505050565b634e487b7160e01b600052601160045260246000fd5b808201808211156106cd576106cd61105e565b634e487b7160e01b600052603260045260246000fd5b6000602082840312156110af57600080fd5b5051919050565b6000600182016110c8576110c861105e565b5060010190565b600181811c908216806110e357607f821691505b60208210810361110357634e487b7160e01b600052602260045260246000fd5b50919050565b634e487b7160e01b600052602160045260246000fdfea26469706673582212202120fdb693b3d8e0990c0179e02c1f65f85b0cef70c9fb1df6a945e3be50a55264736f6c63430008140033",
  "linkReferences": {},
  "deployedLinkReferences": {}
}