{
  "_format": "hh-sol-artifact-1",
  "contractName": "PanicRelay",
  "sourceName": "contracts/PanicRelay.sol",
  "abi": [
    {
      "inputs": [
        {
          "internalType": "address",
          "name": "vault_",
          "type": "address"
        }
      ],
      "stateMutability": "nonpayable",
      "type": "constructor"
    },
    {
      "inputs": [],
      "name": "NotRelayer",
      "type": "error"
    },
    {
      "inputs": [
        {
          "internalType": "address",
          "name": "owner",
          "type": "address"
        }
      ],
      "name": "OwnableInvalidOwner",
      "type": "error"
    },
    {
      "inputs": [
        {
          "internalType": "address",
          "name": "account",
          "type": "address"
        }
      ],
      "name": "OwnableUnauthorizedAccount",
      "type": "error"
    },
    {
      "anonymous": false,
      "inputs": [
        {
          "indexed": true,
          "internalType": "address",
          "name": "previousOwner",
          "type": "address"
        },
        {
          "indexed": true,
          "internalType": "address",
          "name": "newOwner",
          "type": "address"
        }
      ],
      "name": "OwnershipTransferred",
      "type": "event"
    },
    {
      "anonymous": false,
      "inputs": [
        {
          "indexed": false,
          "internalType": "address",
          "name": "relayer",
          "type": "address"
        },
        {
          "indexed": false,
          "internalType": "bool",
          "name": "allowed",
          "type": "bool"
        }
      ],
      "name": "RelayerUpdated",
      "type": "event"
    },
    {
      "inputs": [
        {
          "components": [
            {
              "internalType": "address",
              "name": "user",
              "type": "address"
            },
            {
              "internalType": "address[]",
              "name": "tokens",
              "type": "address[]"
            },
            {
              "internalType": "address[]",
              "name": "spenders",
              "type": "address[]"
            },
            {
              "internalType": "address",
              "name": "safeAddress",
              "type": "address"
            },
            {
              "internalType": "uint256",
              "name": "deadline",
              "type": "uint256"
            },
            {
              "internalType": "uint256",
              "name": "nonce",
              "type": "uint256"
            }
          ],
          "internalType": "struct PanicVault.RelayPanic",
          "name": "request",
          "type": "tuple"
        },
        {
          "internalType": "bytes",
          "name": "signature",
          "type": "bytes"
        }
      ],
      "name": "executeRelay",
      "outputs": [],
      "stateMutability": "nonpayable",
      "type": "function"
    },
    {
      "inputs": [
        {
          "internalType": "address",
          "name": "",
          "type": "address"
        }
      ],
      "name": "isRelayer",
      "outputs": [
        {
          "internalType": "bool",
          "name": "",
          "type": "bool"
        }
      ],
      "stateMutability": "view",
      "type": "function"
    },
    {
      "inputs": [],
      "name": "owner",
      "outputs": [
        {
          "internalType": "address",
          "name": "",
          "type": "address"
        }
      ],
      "stateMutability": "view",
      "type": "function"
    },
    {
      "inputs": [],
      "name": "renounceOwnership",
      "outputs": [],
      "stateMutability": "nonpayable",
      "type": "function"
    },
    {
      "inputs": [
        {
          "internalType": "address",
          "name": "relayer",
          "type": "address"
        },
        {
          "internalType": "bool",
          "name": "allowed",
          "type": "bool"
        }
      ],
      "name": "setRelayer",
      "outputs": [],
      "stateMutability": "nonpayable",
      "type": "function"
    },
    {
      "inputs": [
        {
          "internalType": "address",
          "name": "newOwner",
          "type": "address"
        }
      ],
      "name": "transferOwnership",
      "outputs": [],
      "stateMutability": "nonpayable",
      "type": "function"
    },
    {
      "inputs": [],
      "name": "vault",
      "outputs": [
        {
          "internalType": "contract PanicVault",
          "name": "",
          "type": "address"
        }
      ],
      "stateMutability": "view",
      "type": "function"
    }
  ],
  "bytecode": "0x60a060405234801561001057600080fd5b506040516106fe3803806106fe83398101604081905261002f916100c0565b338061005557604051631e4fbdf760e01b81526000600482015260240160405180910390fd5b61005e81610070565b506001600160a01b03166080526100f0565b600080546001600160a01b038381166001600160a01b0319831681178455604051919092169283917f8be0079c531659141344cd1fd0a4f28419497f9722a3daafe3b4186f6b6457e09190a35050565b6000602082840312156100d257600080fd5b81516001600160a01b03811681146100e957600080fd5b9392505050565b6080516105ec61011260003960008181610127015261019001526105ec6000f3fe608060405234801561001057600080fd5b506004361061007d5760003560e01c80638da5cb5b1161005b5780638da5cb5b146100d7578063ecd8dc3a146100fc578063f2fde38b1461010f578063fbfa77cf1461012257600080fd5b806320d397c214610082578063541d554814610097578063715018a6146100cf575b600080fd5b61009561009036600461033f565b610149565b005b6100ba6100a53660046103fa565b60016020526000908152604090205460ff1681565b60405190151581526020015b60405180910390f35b610095610200565b6000546001600160a01b03165b6040516001600160a01b0390911681526020016100c6565b61009561010a36600461041c565b610214565b61009561011d3660046103fa565b61027f565b6100e47f000000000000000000000000000000000000000000000000000000000000000081565b3360009081526001602052604090205460ff166101795760405163c64891a560e01b815260040160405180910390fd5b60405163f0f14d2760e01b81526001600160a01b037f0000000000000000000000000000000000000000000000000000000000000000169063f0f14d27906101c9908690869086906004016104ef565b600060405180830381600087803b1580156101e357600080fd5b505af11580156101f7573d6000803e3d6000fd5b50505050505050565b6102086102c2565b61021260006102ef565b565b61021c6102c2565b6001600160a01b038216600081815260016020908152604091829020805460ff19168515159081179091558251938452908301527f4b36b2e66f38ed349bec532105790177f1283bcbc094e6cd48565195d3033c43910160405180910390a15050565b6102876102c2565b6001600160a01b0381166102b657604051631e4fbdf760e01b8152600060048201526024015b60405180910390fd5b6102bf816102ef565b50565b6000546001600160a01b031633146102125760405163118cdaa760e01b81523360048201526024016102ad565b600080546001600160a01b038381166001600160a01b0319831681178455604051919092169283917f8be0079c531659141344cd1fd0a4f28419497f9722a3daafe3b4186f6b6457e09190a35050565b60008060006040848603121561035457600080fd5b833567ffffffffffffffff8082111561036c57600080fd5b9085019060c0828803121561038057600080fd5b9093506020850135908082111561039657600080fd5b818601915086601f8301126103aa57600080fd5b8135818111156103b957600080fd5b8760208285010111156103cb57600080fd5b6020830194508093505050509250925092565b80356001600160a01b03811681146103f557600080fd5b919050565b60006020828403121561040c57600080fd5b610415826103de565b9392505050565b6000806040838503121561042f57600080fd5b610438836103de565b91506020830135801515811461044d57600080fd5b809150509250929050565b6000808335601e1984360301811261046f57600080fd5b830160208101925035905067ffffffffffffffff81111561048f57600080fd5b8060051b36038213156104a157600080fd5b9250929050565b8183526000602080850194508260005b858110156104e4576001600160a01b036104d1836103de565b16875295820195908201906001016104b8565b509495945050505050565b6040815260006001600160a01b0380610507876103de565b16604084015261051a6020870187610458565b60c06060860152610530610100860182846104a8565b9150506105406040880188610458565b858303603f190160808701526105578382846104a8565b9250505081610568606089016103de565b1660a0850152608087013560c085015260a087013560e08501528381036020850152848152848660208301376000602086830101526020601f19601f8701168201019250505094935050505056fea264697066735822122026a07d7f5233386ff0bda704f7b885ab5cdd22b44fb393e3d7b0c34585217dc864736f6c63430008140033",
  "linkReferences": {},
  "deployedLinkReferences": {}
}