{
  "_format": "hh-sol-artifact-1",
  "contractName": "PANICToken",
  "sourceName": "contracts/PANICToken.sol",
  "abi": [
    {
      "inputs": [
        {
          "internalType": "string",
          "name": "name_",
          "type": "string"
        },
        {
          "internalType": "string",
          "name": "symbol_",
          "type": "string"
        },
        {
          "internalType": "uint256",
          "name": "initialSupply",
          "type": "uint256"
        },
        {
          "internalType": "address",
          "name": "vault_",
          "type": "address"
        }
      ],
      "stateMutability": "nonpayable",
      "type": "constructor"
    },
    {
      "inputs": [
        {
          "internalType": "address",
          "name": "spender",
          "type": "address"
        },
        {
          "internalType": "uint256",
          "name": "allowance",
          "type": "uint256"
        },
        {
          "internalType": "uint256",
          "name": "needed",
          "type": "uint256"
        }
      ],
      "name": "ERC20InsufficientAllowance",
      "type": "error"
    },
    {
      "inputs": [
        {
          "internalType": "address",
          "name": "sender",
          "type": "address"
        },
        {
          "internalType": "uint256",
          "name": "balance",
          "type": "uint256"
        },
        {
          "internalType": "uint256",
          "name": "needed",
          "type": "uint256"
        }
      ],
      "name": "ERC20InsufficientBalance",
      "type": "error"
    },
    {
      "inputs": [
        {
          "internalType": "address",
          "name": "approver",
          "type": "address"
        }
      ],
      "name": "ERC20InvalidApprover",
      "type": "error"
    },
    {
      "inputs": [
        {
          "internalType": "address",
          "name": "receiver",
          "type": "address"
        }
      ],
      "name": "ERC20InvalidReceiver",
      "type": "error"
    },
    {
      "inputs": [
        {
          "internalType": "address",
          "name": "sender",
          "type": "address"
        }
      ],
      "name": "ERC20InvalidSender",
      "type": "error"
    },
    {
      "inputs": [
        {
          "internalType": "address",
          "name": "spender",
          "type": "address"
        }
      ],
      "name": "ERC20InvalidSpender",
      "type": "error"
    },
    {
      "inputs": [],
      "name": "NotVault",
      "type": "error"
    },
    {
      "inputs": [
        {
          "internalType": "address",
          "name": "owner",
          "type": "address"
        }
      ],
      "name": "OwnableInvalidOwner",
      "type": "error"
    },
    {
      "inputs": [
        {
          "internalType": "address",
          "name": "account",
          "type": "address"
        }
      ],
      "name": "OwnableUnauthorizedAccount",
      "type": "error"
    },
    {
      "anonymous": false,
      "inputs": [
        {
          "indexed": true,
          "internalType": "address",
          "name": "owner",
          "type": "address"
        },
        {
          "indexed": true,
          "internalType": "address",
          "name": "spender",
          "type": "address"
        },
        {
          "indexed": false,
          "internalType": "uint256",
          "name": "value",
          "type": "uint256"
        }
      ],
      "name": "Approval",
      "type": "event"
    },
    {
      "anonymous": false,
      "inputs": [
        {
          "indexed": true,
          "internalType": "address",
          "name": "previousOwner",
          "type": "address"
        },
        {
          "indexed": true,
          "internalType": "address",
          "name": "newOwner",
          "type": "address"
        }
      ],
      "name": "OwnershipTransferred",
      "type": "event"
    },
    {
      "anonymous": false,
      "inputs": [
        {
          "indexed": true,
          "internalType": "address",
          "name": "from",
          "type": "address"
        },
        {
          "indexed": true,
          "internalType": "address",
          "name": "to",
          "type": "address"
        },
        {
          "indexed": false,
          "internalType": "uint256",
          "name": "value",
          "type": "uint256"
        }
      ],
      "name": "Transfer",
      "type": "event"
    },
    {
      "inputs": [
        {
          "internalType": "address",
          "name": "owner",
          "type": "address"
        },
        {
          "internalType": "address",
          "name": "spender",
          "type": "address"
        }
      ],
      "name": "allowance",
      "outputs": [
        {
          "internalType": "uint256",
          "name": "",
          "type": "uint256"
        }
      ],
      "stateMutability": "view",
      "type": "function"
    },
    {
      "inputs": [
        {
          "internalType": "address",
          "name": "spender",
          "type": "address"
        },
        {
          "internalType": "uint256",
          "name": "value",
          "type": "uint256"
        }
      ],
      "name": "approve",
      "outputs": [
        {
          "internalType": "bool",
          "name": "",
          "type": "bool"
        }
      ],
      "stateMutability": "nonpayable",
      "type": "function"
    },
    {
      "inputs": [
        {
          "internalType": "address",
          "name": "account",
          "type": "address"
        }
      ],
      "name": "balanceOf",
      "outputs": [
        {
          "internalType": "uint256",
          "name": "",
          "type": "uint256"
        }
      ],
      "stateMutability": "view",
      "type": "function"
    },
    {
      "inputs": [
        {
          "internalType": "address",
          "name": "account",
          "type": "address"
        },
        {
          "internalType": "uint256",
          "name": "amount",
          "type": "uint256"
        }
      ],
      "name": "burnFrom",
      "outputs": [],
      "stateMutability": "nonpayable",
      "type": "function"
    },
    {
      "inputs": [],
      "name": "decimals",
      "outputs": [
        {
          "internalType": "uint8",
          "name": "",
          "type": "uint8"
        }
      ],
      "stateMutability": "view",
      "type": "function"
    },
    {
      "inputs": [],
      "name": "name",
      "outputs": [
        {
          "internalType": "string",
          "name": "",
          "type": "string"
        }
      ],
      "stateMutability": "view",
      "type": "function"
    },
    {
      "inputs": [],
      "name": "owner",
      "outputs": [
        {
          "internalType": "address",
          "name": "",
          "type": "address"
        }
      ],
      "stateMutability": "view",
      "type": "function"
    },
    {
      "inputs": [],
      "name": "renounceOwnership",
      "outputs": [],
      "stateMutability": "nonpayable",
      "type": "function"
    },
    {
      "inputs": [
        {
          "internalType": "address",
          "name": "vault_",
          "type": "address"
        }
      ],
      "name": "setVault",
      "outputs": [],
      "stateMutability": "nonpayable",
      "type": "function"
    },
    {
      "inputs": [],
      "name": "symbol",
      "outputs": [
        {
          "internalType": "string",
          "name": "",
          "type": "string"
        }
      ],
      "stateMutability": "view",
      "type": "function"
    },
    {
      "inputs": [],
      "name": "totalSupply",
      "outputs": [
        {
          "internalType": "uint256",
          "name": "",
          "type": "uint256"
        }
      ],
      "stateMutability": "view",
      "type": "function"
    },
    {
      "inputs": [
        {
          "internalType": "address",
          "name": "to",
          "type": "address"
        },
        {
          "internalType": "uint256",
          "name": "value",
          "type": "uint256"
        }
      ],
      "name": "transfer",
      "outputs": [
        {
          "internalType": "bool",
          "name": "",
          "type": "bool"
        }
      ],
      "stateMutability": "nonpayable",
      "type": "function"
    },
    {
      "inputs": [
        {
          "internalType": "address",
          "name": "from",
          "type": "address"
        },
        {
          "internalType": "address",
          "name": "to",
          "type": "address"
        },
        {
          "internalType": "uint256",
          "name": "value",
          "type": "uint256"
        }
      ],
      "name": "transferFrom",
      "outputs": [
        {
          "internalType": "bool",
          "name": "",
          "type": "bool"
        }
      ],
      "stateMutability": "nonpayable",
      "type": "function"
    },
    {
      "inputs": [
        {
          "internalType": "address",
          "name": "newOwner",
          "type": "address"
        }
      ],
      "name": "transferOwnership",
      "outputs": [],
      "stateMutability": "nonpayable",
      "type": "function"
    },
    {
      "inputs": [],
      "name": "vault",
      "outputs": [
        {
          "internalType": "address",
          "name": "",
          "type": "address"
        }
      ],
      "stateMutability": "view",
      "type": "function"
    }
  ],
  "bytecode": "0x60806040523480156200001157600080fd5b5060405162000ee138038062000ee1833981016040819052620000349162000351565b338484600362000045838262000475565b50600462000054828262000475565b5050506001600160a01b0381166200008757604051631e4fbdf760e01b8152600060048201526024015b60405180910390fd5b6200009281620000c9565b506200009f33836200011b565b600680546001600160a01b0319166001600160a01b03929092169190911790555062000569915050565b600580546001600160a01b038381166001600160a01b0319831681179093556040519116919082907f8be0079c531659141344cd1fd0a4f28419497f9722a3daafe3b4186f6b6457e090600090a35050565b6001600160a01b038216620001475760405163ec442f0560e01b8152600060048201526024016200007e565b620001556000838362000159565b5050565b6001600160a01b038316620001885780600260008282546200017c919062000541565b90915550620001fc9050565b6001600160a01b03831660009081526020819052604090205481811015620001dd5760405163391434e360e21b81526001600160a01b038516600482015260248101829052604481018390526064016200007e565b6001600160a01b03841660009081526020819052604090209082900390555b6001600160a01b0382166200021a5760028054829003905562000239565b6001600160a01b03821660009081526020819052604090208054820190555b816001600160a01b0316836001600160a01b03167fddf252ad1be2c89b69c2b068fc378daa952ba7f163c4a11628f55a4df523b3ef836040516200027f91815260200190565b60405180910390a3505050565b634e487b7160e01b600052604160045260246000fd5b600082601f830112620002b457600080fd5b81516001600160401b0380821115620002d157620002d16200028c565b604051601f8301601f19908116603f01168101908282118183101715620002fc57620002fc6200028c565b816040528381526020925086838588010111156200031957600080fd5b600091505b838210156200033d57858201830151818301840152908201906200031e565b600093810190920192909252949350505050565b600080600080608085870312156200036857600080fd5b84516001600160401b03808211156200038057600080fd5b6200038e88838901620002a2565b95506020870151915080821115620003a557600080fd5b50620003b487828801620002a2565b60408701516060880151919550935090506001600160a01b0381168114620003db57600080fd5b939692955090935050565b600181811c90821680620003fb57607f821691505b6020821081036200041c57634e487b7160e01b600052602260045260246000fd5b50919050565b601f8211156200047057600081815260208120601f850160051c810160208610156200044b5750805b601f850160051c820191505b818110156200046c5782815560010162000457565b5050505b505050565b81516001600160401b038111156200049157620004916200028c565b620004a981620004a28454620003e6565b8462000422565b602080601f831160018114620004e15760008415620004c85750858301515b600019600386901b1c1916600185901b1785556200046c565b600085815260208120601f198616915b828110156200051257888601518255948401946001909101908401620004f1565b5085821015620005315787850151600019600388901b60f8161c191681555b5050505050600190811b01905550565b808201808211156200056357634e487b7160e01b600052601160045260246000fd5b92915050565b61096880620005796000396000f3fe608060405234801561001057600080fd5b50600436106100f55760003560e01c8063715018a611610097578063a9059cbb11610066578063a9059cbb146101f5578063dd62ed3e14610208578063f2fde38b14610241578063fbfa77cf1461025457600080fd5b8063715018a6146101ad57806379cc6790146101b55780638da5cb5b146101c857806395d89b41146101ed57600080fd5b806323b872dd116100d357806323b872dd1461014d578063313ce567146101605780636817031b1461016f57806370a082311461018457600080fd5b806306fdde03146100fa578063095ea7b31461011857806318160ddd1461013b575b600080fd5b610102610267565b60405161010f91906107b2565b60405180910390f35b61012b61012636600461081c565b6102f9565b604051901515815260200161010f565b6002545b60405190815260200161010f565b61012b61015b366004610846565b610313565b6040516012815260200161010f565b61018261017d366004610882565b610337565b005b61013f610192366004610882565b6001600160a01b031660009081526020819052604090205490565b610182610361565b6101826101c336600461081c565b610375565b6005546001600160a01b03165b6040516001600160a01b03909116815260200161010f565b6101026103ae565b61012b61020336600461081c565b6103bd565b61013f6102163660046108a4565b6001600160a01b03918216600090815260016020908152604080832093909416825291909152205490565b61018261024f366004610882565b6103cb565b6006546101d5906001600160a01b031681565b606060038054610276906108d7565b80601f01602080910402602001604051908101604052809291908181526020018280546102a2906108d7565b80156102ef5780601f106102c4576101008083540402835291602001916102ef565b820191906000526020600020905b8154815290600101906020018083116102d257829003601f168201915b5050505050905090565b60003361030781858561040e565b60019150505b92915050565b600033610321858285610420565b61032c85858561049f565b506001949350505050565b61033f6104fe565b600680546001600160a01b0319166001600160a01b0392909216919091179055565b6103696104fe565b610373600061052b565b565b6006546001600160a01b031633146103a0576040516362df054560e01b815260040160405180910390fd5b6103aa828261057d565b5050565b606060048054610276906108d7565b60003361030781858561049f565b6103d36104fe565b6001600160a01b03811661040257604051631e4fbdf760e01b8152600060048201526024015b60405180910390fd5b61040b8161052b565b50565b61041b83838360016105b3565b505050565b6001600160a01b03838116600090815260016020908152604080832093861683529290522054600019811015610499578181101561048a57604051637dc7a0d960e11b81526001600160a01b038416600482015260248101829052604481018390526064016103f9565b610499848484840360006105b3565b50505050565b6001600160a01b0383166104c957604051634b637e8f60e11b8152600060048201526024016103f9565b6001600160a01b0382166104f35760405163ec442f0560e01b8152600060048201526024016103f9565b61041b838383610688565b6005546001600160a01b031633146103735760405163118cdaa760e01b81523360048201526024016103f9565b600580546001600160a01b038381166001600160a01b0319831681179093556040519116919082907f8be0079c531659141344cd1fd0a4f28419497f9722a3daafe3b4186f6b6457e090600090a35050565b6001600160a01b0382166105a757604051634b637e8f60e11b8152600060048201526024016103f9565b6103aa82600083610688565b6001600160a01b0384166105dd5760405163e602df0560e01b8152600060048201526024016103f9565b6001600160a01b03831661060757604051634a1406b160e11b8152600060048201526024016103f9565b6001600160a01b038085166000908152600160209081526040808320938716835292905220829055801561049957826001600160a01b0316846001600160a01b03167f8c5be1e5ebec7d5bd14f71427d1e84f3dd0314c0f7b2291e5b200ac8c7c3b9258460405161067a91815260200190565b60405180910390a350505050565b6001600160a01b0383166106b35780600260008282546106a89190610911565b909155506107259050565b6001600160a01b038316600090815260208190526040902054818110156107065760405163391434e360e21b81526001600160a01b038516600482015260248101829052604481018390526064016103f9565b6001600160a01b03841660009081526020819052604090209082900390555b6001600160a01b03821661074157600280548290039055610760565b6001600160a01b03821660009081526020819052604090208054820190555b816001600160a01b0316836001600160a01b03167fddf252ad1be2c89b69c2b068fc378daa952ba7f163c4a11628f55a4df523b3ef836040516107a591815260200190565b60405180910390a3505050565b600060208083528351808285015260005b818110156107df578581018301518582016040015282016107c3565b506000604082860101526040601f19601f8301168501019250505092915050565b80356001600160a01b038116811461081757600080fd5b919050565b6000806040838503121561082f57600080fd5b61083883610800565b946020939093013593505050565b60008060006060848603121561085b57600080fd5b61086484610800565b925061087260208501610800565b9150604084013590509250925092565b60006020828403121561089457600080fd5b61089d82610800565b9392505050565b600080604083850312156108b757600080fd5b6108c083610800565b91506108ce60208401610800565b90509250929050565b600181811c908216806108eb57607f821691505b60208210810361090b57634e487b7160e01b600052602260045260246000fd5b50919050565b8082018082111561030d57634e487b7160e01b600052601160045260246000fdfea26469706673582212201531a4d098c7b543a3b76393289b64abe6215b5dca5a47c42a36c3d190fea6e264736f6c63430008140033",
  "linkReferences": {},
  "deployedLinkReferences": {}
}